:020000040800F2
:10800000C00700209D81000827980008619600089D
:1080100025980008CD820008339F0008000000006A
:108020000000000000000000000000003798000879
:10803000CF82000800000000359800083998000839
:10804000B7810008B7810008B7810008B781000830
:10805000B7810008B7810008B7810008B781000820
:10806000B7810008B7810008B7810008B781000810
:10807000B7810008B7810008B7810008B781000800
:10808000B7810008B7810008B7810008B7810008F0
:10809000B7810008B7810008B7810008B7810008E0
:1080A000B7810008B7810008B7810008B7810008D0
:1080B000B7810008B7810008B7810008B7810008C0
:1080C000B7810008B7810008B7810008B7810008B0
:1080D000B7810008B7810008B7810008B7810008A0
:1080E000B7810008B7810008B7810008B781000890
:1080F000B7810008B7810008B7810008B781000880
:10810000B7810008B7810008B7810008B78100086F
:10811000B7810008B7810008B7810008B78100085F
:10812000B7810008B7810008B7810008B78100084F
:10813000B7810008B7810008B7810008B78100083F
:10814000B7810008B7810008B781000829980008A6
:10815000B7810008B7810008B7810008B78100081F
:10816000B7810008B7810008B7810008B78100080F
:10817000B7810008B7810008B7810008000000003F
:10818000B7810008B7810008DFF80CD000F08CF848
:1081900000480047759F0008C00700200648804738
:1081A00006480047FEE7FEE7FEE7FEE7FEE7FEE7DC
:1081B000FEE7FEE7FEE7FEE7C598000889810008B4
:1081C0002DE9F05F0546002092469B46884606460C
:1081D000814640241BE0284641464746224600F09F
:1081E00053F853465A46C01A914110D311461846C7
:1081F000224600F03AF82D1A67EB01084F46224656
:108200000120002100F031F817EB00094E41201E3B
:10821000A4F10104DFDC484631462A464346BDE866
:10822000F09F40EA01039B0703D009E008C9121F31
:1082300008C0042AFAD203E011F8013B00F8013B20
:10824000521EF9D27047D2B201E000F8012B491E4C
:10825000FBD270470022F6E710B513460A460446E3
:108260001946FFF7F0FF204610BD202A04DB203A14
:1082700000FA02F1002070479140C2F1200320FA79
:1082800003F3194390407047202A04DB203A21FA77
:1082900002F00021704721FA02F3D040C2F120021F
:1082A0009140084319467047064C074D06E0E068C8
:1082B00040F0010394E8070098471034AC42F6D32D
:1082C000FFF766FF24A0000844A00008FEE77047FF
:1082D0002DE9F84FDFF87CB100224FF001084FF094
:1082E000030A4FF00F090BF1040E00BF0B6808FAE8
:1082F00002F42340A3426ED14D68022D01D0122D0D
:108300000ED1D50800EB850CDCF820505607F70E8F
:1083100009FA07F6B5430E69BE402E43CCF820603B
:10832000066855000F790AFA05FC07F0030726EAEC
:108330000C06AF40374307604E68012E05D0022E71
:1083400003D0112E01D0122E0ED18668CF6826EAF6
:108350000C06AF40374387604668A6430C79C4F3E8
:108360000014944034434460C6688C6826EA0C06C6
:10837000AC403443C4604C68E40065D5364C256895
:1083800045F480452560246822F0030504F4804408
:108390000094324C2E19D6F8084895072F0F09FA89
:1083A00007F5AC432E4DA84201D1002524E02D4D08
:1083B000A84201D101251FE02B4DA84201D1022581
:1083C0001AE02A4DA84201D1032515E0284DA84204
:1083D00002D1042510E037E0264DA84201D1052541
:1083E0000AE0254DA84201D1062505E0234DA8420B
:1083F00001D1072500E00825BD402543C6F80858EF
:10840000DBF800405D464E689C43F60300D51C43F4
:108410002C60DEF8004075464E689C43B60300D5DC
:108420001C432C600B4D08352C684E689C43F602AB
:1084300000D51C432C60074D0C352C684E689C43BE
:10844000B60200D51C432C60521C102AFFF44EAF1C
:10845000BDE8F88F003C0140443802400030014044
:10846000000002400004024000080240000C0240EC
:10847000001002400014024000180240001C02409C
:108480000AB1816170470904FBE700000148806878
:108490007047000000000020D0F8C00201F0DCBBF3
:1084A000D0F8C00201F0EDBB704700002DE9F041AB
:1084B00004460068064601F067FC01286FD1206879
:1084C00001F0E6FC00286AD0206801F0E1FC80029F
:1084D00003D521684FF400104861206801F0D8FCF2
:1084E000C00203D521684FF480104861206801F074
:1084F000CFFC400103D521684FF0806048612068BF
:1085000001F0C6FC800702D521680220486120687E
:1085100001F0BEFC800010D5D6F8400420F02E00FB
:10852000C6F840042046FFF7BBFF0121206801F098
:1085300094FC21684FF000504861206801F0A8FCCD
:10854000C00102D5204600F0F6FF206801F0A0FC33
:10855000000705D5204600F04AF821680820486148
:10856000206801F095FC800124D5206801F071FCA1
:10857000074600254FF0010815E000BF05F00F0188
:1085800008FA01F038420DD006EB4510D0F800058E
:10859000E9B20004204603D500F095FD02E01CE09E
:1085A00000F0A7FE6D1CA068A842E7D821684FF034
:1085B00000704861206801F06BFCC043C0060CD419
:1085C0002068816921F010018161204601F010F8D6
:1085D0002068816941F010018161BDE8F081D0F827
:1085E000C00201F079BBD0F8C00201F079BBD0F82D
:1085F000C00201F062BB10B5044690F8B802012831
:108600000DD0012084F8B802206801F095FB01210B
:10861000206801F07BFB002084F8B80210BD022026
:1086200010BD10B5044690F8B802012809D0012009
:1086300084F8B802206801F03DFC002084F8B802FC
:1086400010BD022010BD000070B504001BD094F8CE
:108650003D00002520B984F83C50204600F0AEF8DB
:10866000242084F83D002068016821F001010160A8
:1086700000F0FEF94D4A6168914201D84C4900E092
:108680004C49884201D2012070BD4B492368B0FBA0
:10869000F1F15E6826F03F060E435E606368934228
:1086A00006D94FF4967359434FF47A73B1FBF3F143
:1086B0002368491C1E6A26F03F063143196261682F
:1086C000914210D84900401EB0FBF1F2521CC2F397
:1086D0000B02042A01D2042022E0B0FBF1F0401C7E
:1086E000C0F30B001CE0A368F3B301EBC10202EB83
:1086F0000116421EB2FBF6F2521C42F480421205F1
:1087000049D093B301EBC10202EB0111401EB0FB53
:10871000F1F0401CC0F30B0040F4804040F40040F6
:108720002168CA694CF6FF739A431043C861D4E9C3
:108730000701084321680A6822F0C002104308605C
:10874000D4E9030101432068826848F2FF339A4369
:1087500011438160D4E9050108432168CA6822F009
:10876000FF021043C86001E00EE016E020680168D7
:1087700041F0010101602564202084F83D0025635B
:1087800084F83E50002070BD01EB4106421EB2FB52
:10879000F6F2521CB3E70120C2E701EB4101401E93
:1087A000B0FBF1F0401CC0F30B00B7E7A08601005E
:1087B00080841E0000093D0040420F0010B586B0C5
:1087C000044614216846FFF745FD14492068884295
:1087D00021D113480021026842F0020202600068C1
:1087E00000F0020005904FF41070009012200190EC
:1087F0000120CDE902010420049069460948FFF7F1
:1088000067FD07481030016841F4001101600068FD
:1088100000F40010059006B010BD000000540040A8
:108820003038024000040240024881680278114456
:1088300081607047000000200B4810B5016841F4CA
:1088400000710160016841F480610160016841F4D8
:1088500080710160032000F061F8002000F006F84C
:1088600000F024F8002010BD003C024070B50D4D12
:1088700004464FF47A712878B1FBF0F00A49096890
:10888000B1FBF0F000F046FB48B9102C07D20022F3
:108890002146501E00F022F800206C6070BD0120BF
:1088A00070BD0000000000200C0000200A4808B540
:1088B000016841F480410160006800F4804000904C
:1088C0000548001F016841F080510160006800F018
:1088D0008050009008BD000044380240F0B40E4BB8
:1088E0001B680C46C3F30223C3F10705042D00D90E
:1088F0000425191D072901D2002300E0DB1E0126F3
:1089000006FA05F1491E214099409E40761E164008
:108910003143F0BC01F00EBB0CED00E0064900F065
:10892000070208684FF6FF03184040EA0220034A96
:1089300010430860704700000CED00E00000FA05ED
:108940002DE9F0470E46050065D0DFF81481D8F810
:108950000000F7B200F00F00B04207D288F80070B4
:10896000D8F8000000F00F00B04254D128683D4C08
:10897000810712D5400703D5206840F4E0502060FD
:108980002878000703D5206840F460402060206804
:10899000A96820F0F000084320602878C0072DD097
:1089A000304968680839012812D0022813D00328FA
:1089B00011D00968890700292DDA216821F0030107
:1089C00001432160FFF762FD814641F2883A0EE0E3
:1089D00009688903EFE709688901ECE7FFF756FDAD
:1089E000A0EB0901514502D90320BDE8F0872068BA
:1089F000696800F00C00B0EB810FEFD1D8F80010DF
:108A0000404601F00F01B14207D90770006800F03D
:108A10000F00B04201D00120E7E72878400705D5D4
:108A20002068E96820F4E0500843206028780007B7
:108A300006D52068296920F4604040EAC100206022
:108A400000F036F82168084AC1F30311515CC840B0
:108A5000064908600020FFF709FF0020C5E7000075
:108A6000003C0240083802400CA000080C00002026
:108A70000448054900680968044AC1F38221515C31
:108A8000C84070470C000020083802401CA00008B5
:108A90000448054900680968044AC1F34231515C41
:108AA000C84070470C000020083802401CA0000895
:108AB000154810B5006810F00C02144813D041108E
:108AC000042A0FD0082A0ED10F4C241F22682368D5
:108AD00002F03F025B0207D52068C0F38810A0FBBC
:108AE000010106E0084610BD2168C1F38811A1FB11
:108AF00000010023FFF764FB2168C1F30141491C19
:108B00004900B0FBF1F010BD083802400024F40029
:108B10002DE9F84F050076D02878DFF8F8B2BE4C82
:108B2000C00749D0DBF800105846C1F38101012984
:108B300008D00068C0F3810002280AD1201D006817
:108B4000400206D52068800336D568680028E2D048
:108B500032E06868B0F5803F10D0B0F5A02F2068F3
:108B600010D020F480302060206820F48020206025
:108B70006868A0B1FFF78AFC06460CE0206840F464
:108B80008030F4E740F480202060F7E7FFF77EFCB8
:108B9000801B642873D820688003F7D50CE0FFF7AA
:108BA00075FC064605E000BFFFF770FC801B6428DB
:108BB000F0D820688003F7D42878DFF86082800737
:108BC0004FF000093ED5DBF80010584611F00C0FAD
:108BD00009D00068C0F3810002280BD18D48001F26
:108BE0000068400206D42068800715D5E86801288F
:108BF00009D111E0E868B8B10120C8F80000FFF71A
:108C000045FC064605E002E1FFF740FC801B022818
:108C1000C0D820688007F7D52068296920F0F800BF
:108C200040EAC10020600DE0C8F80090FFF72EFC7C
:108C3000064604E0FFF72AFC801B02281FD82068A4
:108C40008007F7D42878000722D5724E74486969E6
:108C50006C3671B101210160FFF718FC074604E092
:108C6000FFF714FCC01B022809D830688007F7D52D
:108C70000EE0C0F80090FFF709FC074605E083E02E
:108C8000FFF704FCC01B02287ED830688007F7D4A9
:108C90002878400768D5DFF87CA100270AF1380A58
:108CA000DAF80000C0000BD4DAF8001041F080516F
:108CB000CAF80010DAF80000012700F08050009098
:108CC000584E3068C00510D4306840F48070306071
:108CD000FFF7DCFB009005E0FFF7D8FB0099401A96
:108CE000022851D83068C005F6D54A4EA8686836C3
:108CF00001280FD00528306810D020F00100306026
:108D0000306820F004003060A868B8B1FFF7BEFBFF
:108D100000900FE0306840F00100F4E740F00400FC
:108D20003060F7E7FFF7B2FB0099411A41F2883053
:108D3000814264D830688007F4D50EE0FFF7A6FBC7
:108D4000009007E0FFF7A2FB0099411A41F288303A
:108D5000814254D830688007F4D42FB1DAF800107B
:108D600021F08051CAF80010A869C0B3DBF80010E8
:108D7000C1F3810102294AD00228484607D0C8F829
:108D80006000FFF783FB00E039E005463AE0474624
:108D9000C8F86000FFF77AFB064604E0FFF776FBB1
:108DA000801B02282BD820688001F7D4D5E9070161
:108DB0000843A96A1C4A490802EB01416A6A41EA70
:108DC0008211084395F82C1040EA01611148001FF8
:108DD000016001203866FFF759FB054605E014E005
:108DE000FFF754FB401B022809D820688001F7D503
:108DF0000BE000BFFFF74AFB401B022802D903200B
:108E0000BDE8F88F20688001F4D40020F8E7012045
:108E1000F6E70000083802400038024000004742F0
:108E2000800E4742007000400000FFFF70B5040054
:108E300005D00025A56294F8510010B106E001208C
:108E400070BD84F85050204600F030F8022084F8BD
:108E500051002068016821F040010160D4E901015E
:108E60000843D4E903121143084361690843218B85
:108E700001F400710843E1690843216A0843A16ACB
:108E8000084321680860A069042101EA1040616A72
:108E90000843216848602068C16921F40061C1610C
:108EA0006565012084F85100002070BD10B586B0C2
:108EB000044614216846FFF7CDF91349206888421B
:108EC0001FD112480021026842F4805202600068FB
:108ED00000F4805005900D481438026842F00102F9
:108EE0000260006800F001000590E0200090022080
:108EF000CDE901010520CDE9031069460448FFF7DB
:108F0000E7F906B010BD00000030014044380240CF
:108F10000000024010B5401EB0F1807F01D3012057
:108F200010BD4FF0E02460610F21601701F002F8DE
:108F30000020A06107202061002010BD70B5040052
:108F400004D094F83900002510B106E0012070BD6E
:108F500084F83850204600F023F8242084F83900A3
:108F60002068C16821F40051C160204600F0D4FCA3
:108F70002068016921F4904101612068416921F074
:108F80002A0141612068C16841F40051C160E56374
:108F9000202084F8390084F83A00002070BD0000D9
:108FA00010B586B0044614216846FFF753F91449FA
:108FB0002068884221D11348016841F48021016072
:108FC000006800F4802005900E481038016841F0D8
:108FD000040101600068694600F0040005904FF448
:108FE0004060009002200190012002900320039035
:108FF000072004900448FFF76BF906B010BD00008D
:109000000048004040380240000802402DE9F84383
:10901000044690F839001F4616460D46202850D1C8
:10902000A5B19EB194F8380001284AD0012084F8F7
:1090300038004FF00008C4F83C80212084F8390043
:10904000FFF724FAA6848146E68426E00120BDE8E5
:10905000F883E08C401EE084A0684B46B0F5805F4A
:109060004FF000024FF080012046009703D000F03F
:10907000A9FDE8B90DE000F0A5FDC8B92888216870
:10908000C0F308004860206908B16D1C05E0AD1C04
:1090900003E0216815F8010B4860E08C0028D8D166
:1090A0004B46002240212046009700F08BFD08B17E
:1090B0000320CCE7202084F8390084F83880002091
:1090C000C5E70220C3E72DE9F05F074600680E46BA
:1090D00000EB4114D4F808054FF0040B420701EBF4
:1090E00086004FF0050A4FF0100807EBC00508D5C1
:1090F000C4F808B5D4F80C0540F00200C4F80C051B
:1091000030E0D4F80805800601D5202028E0D4F806
:1091100008054FF0080900070FD5D4F80C0540F0FA
:109120000200C4F80C0585F85DA0C4F80885C4F8F1
:109130000895386800F02CFE14E0D4F808054005C6
:1091400010D5D4F80C0540F00200C4F80C053868BE
:1091500000F01EFEC4F8088585F85D904FF480602D
:10916000C4F80805D4F8080580050ED5D4F80C0518
:1091700040F00200C4F80C05314604F5A1643868DB
:1091800000F006FE4FF4007090E0D4F808054FF0B0
:109190000001C0074FF0010237D0386930B1A86C28
:1091A000D4F81035C3F31203C01AE86485F85D20C3
:1091B000A965C4F8082595F83F0020B1022802D01F
:1091C00003280FD01AE0D4F80C0540F00200C4F8D0
:1091D0000C05314604F5A164386800F0D9FDC4F8E7
:1091E00000800BE0D4F8000540F00050C4F8000502
:1091F00085F85C2031463846FFF756F915F8500FD0
:1092000080F001002870BDE8F09FD4F808058007C1
:1092100035D5D4F80C0520F00200C4F80C0595F8FB
:109220005D000223012808D0052809D006280AD0AD
:10923000082808D003281FD015E085F85C2012E02C
:1092400085F85CA00FE0A86D401CA865032813D921
:10925000A96585F85CB0D4F8000520F0804040F0A6
:109260000040C4F80005C4F8083595F85C20314684
:109270003846FFF719F9C6E785F85C30EBE7D4F814
:109280000805000614D5D4F80C0540F00200C4F817
:109290000C05A86D3146401CA865062085F85D00C8
:1092A00004F5A164386800F073FD80202060AAE70F
:1092B000D4F80805C006A6D595F83F00032803D0CA
:1092C00020B1022802D011E0A96505E0A96538693E
:1092D00060B9032085F85D00D4F80C0540F0020069
:1092E000C4F80C053146386800F052FDC4F8088512
:1092F00089E72DE9F047026802EB4114D4F808250C
:109300004FF00403520709D5C4F80835D4F80C050A
:1093100040F00200C4F80C05BDE8F087D4F8082539
:1093200001EB810596064FF0000200EBC5054FF0FA
:10933000020C15D52023C4F8083595F83D30012BD3
:10934000EAD185F83D2085F85CC0D4F80C2542F0C0
:109350000202C4F80C250068BDE8F04700F018BD13
:10936000D4F8086577064FF0010611D585F85D3011
:1093700085F83D60AA65D4F80C2542F00202C4F8D5
:109380000C25006804F5A16400F002FD402010E007
:10939000D4F80875BF050ED5D4F80C2542F00202AA
:1093A000C4F80C25006804F5A16400F0F1FC4FF44A
:1093B00000702060B0E7D4F80875FF070FD0AA65E9
:1093C000D4F80C2542F00202C4F80C25006804F51C
:1093D000A16400F0DDFC266085F85D609CE7D4F8B0
:1093E00008754FF005095FEA07784FF008070DD5BB
:1093F000C4F80875D4F80C2542F00202C4F80C2514
:10940000006800F0C5FC85F85D9085E7D4F8088514
:109410004FF0100A5FEAC86818D5AA65032285F8DC
:109420005D2095F83D2022B995F83C200AB985F8D1
:109430003D60D4F80C2542F00202C4F80C25006807
:1094400004F5A16400F0A4FC5046B2E7D4F8088506
:109450005FEA08680FD5D4F80C2542F00202C4F880
:109460000C25006804F5A16400F092FC062085F844
:109470005D0080209DE7D4F808855FEA485812D542
:10948000D4F80C2542F00202C4F80C25006804F55B
:10949000A16400F07DFCC4F800A04FF4806020605F
:1094A00085F85D7038E7D4F80875BF0796D5D4F80D
:1094B0000C7527F00207C4F80C7595F85D70012F44
:1094C0000AD0032F17D0042F15D0052F16D0062F42
:1094D00017D0082F15D027E085F85C6095F83F205D
:1094E000022A01D0032A1FD195F8512082F00102EF
:1094F00085F8512018E085F85CC015E085F85C908F
:1095000012E0AE6D761CAE65032E03D9AA6585F810
:109510005C3001E085F85CC0D4F8002522F0804280
:1095200042F00042C4F80025C4F808C595F85C2054
:10953000FEF7BAFFF0E67CB504680546D4F84004AF
:109540000190D4F8400420F02E000090019880078C
:109550000DD50198C00706D0A06920F00051A16187
:109560002846FEF799FF009840F00200009001980D
:10957000000732D5009840F008000090019840079D
:109580001DD5A869022803D0E86801280CD00FE097
:109590000198C0F341400228286803D0012100F05F
:1095A0005CFC05E00221FAE74EF66020C4F80404F2
:1095B0002846FFF718F82846FEF76EFF0DE028460C
:1095C000FFF70DF8D4F8400420F02E00C4F8400452
:1095D0002868816941F000518161019880060098F6
:1095E00002D540F020000090C4F840047CBD00008B
:1095F0002DE9F041024600680646016AC1F3434383
:1096000001F00F07C1F30A14022B25D1002C23D03F
:1096100007EB870102EBC105696C00291CD02246CB
:1096200000F03AFC686C20446864E86C2044E8640C
:1096300006EB4710D0F81015084A11420CD0D0F8AC
:10964000001521F0804141F00041C0F8001515F8E7
:10965000500F80F001002870BDE8F0810000F81F75
:10966000FEE700002DE9F04F87B014216846FEF7B1
:10967000F1FD58480024016841F0100101600168C3
:1096800001F010010591016841F0040101600168D9
:1096900001F004010591016841F080010160016859
:1096A00001F080010591016841F00101016001684C
:1096B00001F001010591016841F0020101600168BA
:1096C00001F002010591016841F0080101600068A4
:1096D000002200F00800059008213F48FEF7D0FE68
:1096E000012211463D48FEF7CBFE4FF2100A002240
:1096F00051463B48FEF7C4FE082601250096CDE9F9
:109700000154694634480394FEF7E2FD0095CDE923
:109710000154694631480394FEF7DAFD00960226AB
:10972000CDE901640527CDE9034769462B48FEF7DB
:10973000CFFDDFF8B0800095DFF8ACB0CDE9018453
:1097400069465846FEF7C4FD10200090CDE901643B
:109750004FF00609CDE9034969465846FEF7B8FDC2
:109760000420CDE90004DFF884B06946584602942D
:10977000FEF7AEFDA8020090CDE90164CDE90347F4
:1097800069465846FEF7A4FDCDF800A0CDE9015486
:10979000694613480394FEF79BFD4FF484500090F4
:1097A000CDE90164CDE9034969460C48FEF790FD17
:1097B0002020CDE90004694609480294FEF788FD9F
:1097C0000096CDE9018469460348FEF781FD07B0A4
:1097D000BDE8F08F3038024000100240000802401F
:1097E000000C024000001210000002400004024081
:1097F0000B480A494FF4007201604FF482714160D6
:1098000000218160C1600161C0E90512C16101628E
:10981000416281620A21C162FFF708BB003001404A
:1098200064000020FEE770470148FEF73FBE0000DD
:10983000FC00002070477047FEF7F6BF30B593B0CC
:1098400030216846FEF706FD14210CA8FEF702FD44
:109850001A480025016841F080510160006800F05D
:10986000805011901648016841F480410160006801
:10987000022400F480401190012000900004019027
:109880008001CDE90640082008904FF4A870CDE98A
:10989000090407200B906846FFF73AF90CA90F203E
:1098A00081E831004FF4A0500F90E00210900521A4
:1098B0000CA8FFF745F813B030BD00004038024057
:1098C000007000401048016841F4700101600F48C9
:1098D000016841F0010101600C4A00210832116069
:1098E00002680B4B1A400260031D0A4A1A600268A4
:1098F00022F48022026005480C30016002495806BB
:10990000803908607047000088ED00E000380240B0
:10991000FFFFF6FE103000242DE9F04104460068F8
:109920000169E26821F44051114301612169A06895
:10993000E26908436169114322680843D16849F22A
:109940000C6399430143D16020684169A26921F405
:10995000407111434161E2696425B2F5004F9748B7
:10996000974922684FF032083FD08A4201D08242A4
:109970007CD1FFF78DF800EBC00101EB00106168AE
:109980008900B0FBF1F6FFF783F800EBC00101EBB3
:10999000001061688900B0FBF1F0B0FBF5F06FF0EA
:1099A0001801484306EB800108EB0110B0FBF5F00D
:1099B00000F0F006FFF76CF800EBC00101EB0010BF
:1099C00061688900B0FBF1F0B0FBF5F006EB001622
:1099D000FFF75EF800EBC00101EB00106168890041
:1099E000B0FBF1F7FFF754F8D2E08A4201D082428F
:1099F0003DD1FFF74DF800EBC00101EB00106168AD
:109A00004900B0FBF1F0B0FBF5F00601FFF740F8BC
:109A100000EBC00101EB001061684900B0FBF1F7F9
:109A2000FFF736F800EBC00101EB00106168490058
:109A3000B0FBF1F0B0FBF5F06FF01801484307EB15
:109A4000800108EBC100B0FBF5F000F0F80006EB78
:109A50004006FFF71DF800EBC00101EB0010616844
:109A60004900B0FBF1F7FFF713F83CE055E0FEF7D3
:109A7000FFFF00EBC00101EB001061684900B0FB83
:109A8000F1F0B0FBF5F00601FEF7F2FF00EBC001CC
:109A900001EB001061684900B0FBF1F7FEF7E8FF49
:109AA00000EBC00101EB001061684900B0FBF1F070
:109AB000B0FBF5F06FF01801484307EB800108EBAD
:109AC000C100B0FBF5F000F0F80006EB4006FEF731
:109AD000CFFF00EBC00101EB001061684900B0FB53
:109AE000F1F7FEF7C5FF00EBC00101EB0010616864
:109AF0004900B0FBF1F0B0FBF5F06FF018014843FE
:109B000007EB800108EBC100B0FBF5F000F00700A7
:109B1000216830448860BDE8F081FEF7A9FF00EBC2
:109B2000C00101EB001061688900B0FBF1F6FEF79F
:109B30009FFF00EBC00101EB001061688900B0FBE2
:109B4000F1F0B0FBF5F06FF01801484306EB80012F
:109B500008EB0110B0FBF5F000F0F006FEF788FF0F
:109B600000EBC00101EB001061688900B0FBF1F06F
:109B7000B0FBF5F006EB0016FEF77AFF00EBC00134
:109B800001EB001061688900B0FBF1F7FEF770FF90
:109B900000EBC00101EB001061688900B0FBF1F03F
:109BA000B0FBF5F06FF01801484307EB800108EBBC
:109BB0000110B0FBF5F000F00F00A9E70014014020
:109BC000001001402DE9F041984617460E46044624
:109BD000069D1DE0681C1BD02DB1FEF757FCA0EBC5
:109BE0000800A84214D92068C16821F4D071C1606E
:109BF0002068416921F001014161202084F8390089
:109C000084F83A00002084F838000320BDE8F08191
:109C10002068006836EA000004D00020B842D9D09D
:109C20000020F3E70120F9E70B2907D200EB8100C0
:109C3000B0F88013C1F30E01C0F880130020704704
:109C400001004FF0000004D0012901D0022901D009
:109C5000022070470120704710B5017821B190F8BB
:109C60001F13012909D00AE0012180F81E13D0F842
:109C7000C82322B10421904701E002210170002095
:109C800010BD10B5044600F038F821792046FFF7E2
:109C9000CBFF61792046FFF7C7FF002084F81E0341
:109CA000D4F8C82312B1052120469047204600F081
:109CB0001BF803202070002010BDD0F8BC13491CF5
:109CC000C0F8BC1301780B2905D1D0F8781300290E
:109CD00001D0896908477047002180F81F13704739
:109CE000012180F81F13704710B5D0F8C403FEF7A8
:109CF00082FCBDE81040FFF7A3BF10B5D0F8C40345
:109D0000FEF78FFCBDE81040FFF79ABF08B5D0F80A
:109D1000402422F02E020092D20405D4012909D158
:109D2000009941F4805103E021B9009921F4805158
:109D3000C0F84014002008BD816841F00101816035
:109D400000207047002110220261054A491C9142FF
:109D500001D9032070470369DB06F7D40020704760
:109D6000400D03000022202343EA811101610549CF
:109D7000521C8A4201D90320704703699B06F7D41D
:109D800000207047400D0300406900F0010070475B
:109D900000EB4111D1F800254FF47A73C2F38142F0
:109DA0006AB1022A0BD0D1F8002542F08042C1F8F6
:109DB0000025D0F8100410F47F0F2ED009E0D1F860
:109DC000002542F08042C1F80025C06A10F47F0FE0
:109DD00007D0D1F8000540F00040C1F80005002090
:109DE0007047D1F8000520F00040C1F80005D1F817
:109DF000000540F00040C1F80005D1F8000520F44E
:109E00000040C1F80005012002E0401C9842E6D85D
:109E1000D1F80025002AF8DBE1E7D1F8000520F0B1
:109E20000040C1F80005D1F8000540F00040C1F83D
:109E30000005D1F8000520F40040C1F8000501201C
:109E400002E0401C9842CAD8D1F80025002AF8DB6D
:109E5000C5E7D0F8140480B27047D0F8002422F08F
:109E60000302C0F80024D0F8002401F003031A43D1
:109E7000C0F80024012902D0022903D006E04BF6E5
:109E8000803101E041F27071C0F804140020704785
:109E90004169806908407047D21C10B593080022C0
:109EA00000F5805002E00468521C10C19A42FAD3B7
:109EB000084610BD30B504468068002520F001003A
:109EC000A06010212046FFF74DFF2046FFF73AFF24
:109ED0005FF0000004EB4011D1F8002522F0802251
:109EE00042F08042C1F80025401C0F28F2D9002022
:109EF0004FF47A7304EB4011D1F8002522F40042AC
:109F000042F04042C1F800256D1C9D4203D8D1F8B3
:109F10000025002AF8DB401C0F28EBD94FF0FF305A
:109F2000C4F814046061A06840F00100A060002043
:109F300030BDFEE70907090E002804DB00F1E02030
:109F400080F80014704700F00F0000F1E02080F866
:109F5000141D704702E008C8121F08C1002AFAD178
:109F600070477047002001E001C1121F002AFBD199
:109F70007047000086B0FEF75FFCFFF75FFCFFF75D
:109F800071FB19481749002401601849C0E9011400
:109F90004FF48041C0E9034144618461C4610462BB
:109FA000FEF752FBFFF724FC0F481149AC3001606B
:109FB0004FF4E131C0E901140C21C460C0E904414F
:109FC0008461C461FEF7BAFF18220AA16846FEF751
:109FD00028F9641E0448234617226946AC30FFF76F
:109FE00015F8F7E70054004010000020A08601009B
:109FF0000048004048656C6C6F4673726F6D41702D
:10A00000706C69636174696F6E0A00000000000083
:10A010000000000001020304060708090000000018
:10A020000102030444A0000800000020100000000A
:10A03000549F000854A0000810000020B007000042
:10A04000649F0008010000001000000000000000F4
:04A050000024F400F4
:0400000508008189E5
:00000001FF
