:020000040800F2
:10000000F80800209D010008ED360008A93300081B
:10001000E936000857070008B34000080000000058
:10002000000000000000000000000000033700088E
:100030005B070008000000000137000805370008D2
:10004000B7010008B7010008B7010008B7010008B0
:10005000B7010008B7010008B7010008B7010008A0
:10006000B7010008B7010008B7010008B701000890
:10007000B7010008B7010008B7010008B701000880
:10008000B7010008B7010008B7010008B701000870
:10009000B7010008B7010008B7010008B701000860
:1000A000B7010008B7010008B7010008B701000850
:1000B000B7010008B7010008B7010008B701000840
:1000C000B7010008B7010008B7010008B701000830
:1000D000B7010008B7010008B7010008B701000820
:1000E000B7010008B7010008B7010008B701000810
:1000F000B7010008B7010008B7010008B701000800
:10010000B7010008B7010008B7010008B7010008EF
:10011000B7010008B7010008B7010008B7010008DF
:10012000B7010008B7010008B7010008B7010008CF
:10013000B7010008B7010008B7010008B7010008BF
:10014000B7010008B7010008B7010008F136000840
:10015000B7010008B7010008B7010008B70100089F
:10016000B7010008B7010008B7010008B70100088F
:10017000B7010008B7010008B7010008000000003F
:10018000B7010008B7010008DFF80CD000F062FAF0
:1001900000480047F1490008F80800200648804759
:1001A00006480047FEE7FEE7FEE7FEE7FEE7FEE75C
:1001B000FEE7FEE7FEE7FEE7C13700088901000819
:1001C0002DE9F05F0546002092469B46884606468C
:1001D000814640241BE0284641464746224600F01F
:1001E00070F853465A46C01A914110D3114618462A
:1001F000224600F057F82D1A67EB01084F462246B9
:100200000120002100F04EF817EB00094E41201E9E
:10021000A4F10104DFDC484631462A464346BDE8E6
:10022000F09F40EA01039B0703D009E008C9121FB1
:1002300008C0042AFAD203E011F8013B00F8013BA0
:10024000521EF9D27047D2B201E000F8012B491ECC
:10025000FBD270470022F6E710B513460A46044663
:100260001946FFF7F0FF204610BD421C10F8011B95
:100270000029FBD1801A704730B50B46014600209B
:100280002022012409E021FA02F59D4205D303FA58
:1002900002F5491B04FA02F52844151EA2F10102D9
:1002A000F1DC30BD202A04DB203A00FA02F1002004
:1002B00070479140C2F1200320FA03F319439040A4
:1002C0007047202A04DB203A21FA02F0002170470F
:1002D00021FA02F3D040C2F12002914008431946AE
:1002E00070472DE9FE4F804681EA0300C00F0C469F
:1002F000009021F0004123F00045B8EB0200A94135
:1003000005D24046214690461C460B46024623F045
:100310000040104347D0270DC7F30A00C3F30A512A
:100320000290401A019040286BDAC3F3130040F4A6
:10033000801B0098924620B10023D2EB030A63EBA6
:100340000B0B01985946C0F140025046FFF7AAFF37
:1003500006460D4650465946019A00F08DF910EBBD
:1003600008006141002487EA115284EAE7731A43C6
:1003700040D0009A62B3019A012A4FEA075215DC75
:10038000001B61EB02014FF0004202EA0752CDE987
:100390000042001C41F5801132462B4600F08DF9D9
:1003A00003B0BDE8F08F40462146F9E7001B61EB42
:1003B0000201001C41F5801300185B412018A2F5D2
:1003C000001747EB030140EAD570B6196D4111E003
:1003D0006D084FEA360645EAC0754FEA0752001B22
:1003E00061EB0201001C41F5801149084FEA300021
:1003F0000019514132462B4603B0BDE8F04F00F0E2
:100400004DB90098012240000023D0EB020263EBBB
:10041000E073009821464FEAE074B8EB000061EB0E
:100420000401E9E783F000435BE781F0004158E70E
:100430002DE9FE4F81EA030404F0004421F000415D
:1004400000944FF0000B23F0004350EA01045ED00B
:1004500052EA03045BD0C3F30A54C1F30A552C4497
:10046000A4F2F3340194A0FB0254C1F3130141F44C
:100470008011C3F3130343F4801301FB024400FB18
:10048000034E840A970A44EA815447EA8357A4FB3F
:10049000076802958D0A05FB07854FEA932C04FB3C
:1004A0000C542705029D4FEA065847EA1637B5EB6C
:1004B00008056EEB070C870E920E47EA811742EA99
:1004C0008312A7FB0201B6EB0B0164EB00042B0DBA
:1004D00043EA0C335E1844EB1C50DA465146E7FB06
:1004E0000201C5F313044FEA0B3343EA14534FEAF6
:1004F0000432019C43EA0603A4F10C040294009C1C
:10050000CDE900B400F0D9F803B0BDE8F08F0020C9
:100510000146F9E72DE9F04D81EA030404F0004BB0
:1005200021F0004514464FF0000A23F0004150EA44
:10053000050220D054EA01021DD0C5F30A57024635
:10054000C5F31303C1F31300C1F30A5640F4801539
:1005500043F48013A7EB0608101BD64608F2FD38BB
:1005600073EB050002D308F1010801E092185B412A
:10057000B8F1000F03DA00200146BDE8F08D00203D
:100580004FF48011064684460EE0171B73EB0507F7
:1005900005D3121B63EB050306434CEA010C490823
:1005A0004FEA300092185B4150EA0107EDD152EA60
:1005B000030012D082EA040083EA0501084305D053
:1005C000101BAB4106D20122002306E000224FF0AF
:1005D000004302E06FF0010253101AEB06004CEBEF
:1005E000085110EB0A0041EB0B01BDE8F04D00F0A3
:1005F00055B8C1F30A52C1F3130140F2FF3341F47D
:1006000080119A4202DA00200146704740F23343DB
:100610009A42A2F2334202DC5242FFF752BEFFF787
:1006200041BE000030B5041E71F1000404DB4FF040
:100630000044404264EB0101141E73F1000405DB29
:100640001C464FF00043524263EB0403994208BF3B
:10065000904230BD064C074D06E0E06840F00103D3
:1006600094E8070098471034AC42F6D3FFF790FDAA
:10067000804A0008A04A0008202A06DBCB17203A4F
:1006800041FA02F043EAE07306E041FA02F3D04097
:10069000C2F12002914008431946704710B5141E5C
:1006A00073F1000408DA401C41F1000192185B412B
:1006B0001A4301D120F0010010BD2DE9F04D924602
:1006C0009B4611B1B1FA81F202E0B0FA80F2203219
:1006D0009046FFF7E7FD04460F4640EA0A0041EA6C
:1006E0000B0153465A46084313D0114653EA010002
:1006F00019D0C8F140025046FFF7E3FD05460E460B
:10070000504659464246FFF7CDFD084305D001202B
:1007100004E020463946BDE8F08D0020054346EA56
:10072000E0762C4337430A986305E40AA0EB0800FF
:100730000022FD0A44EA47540A3002D5002001464F
:10074000E9E7010510196941DDE90845001969412A
:10075000BDE8F04DA2E700BFFEE77047704700001C
:1007600002490968C1F30B0070470000002004E053
:1007700002490868C0F307207047000000C0FF1F4F
:100780002DE9F04105460E461746394C4FF0CC088E
:10079000002F4CD0012E20D100F04CFD00BF34487A
:1007A0000838006800F480300028F8D1206820F074
:1007B00000402060206820EA05402060206840F06A
:1007C0000200206000BF2A480838006800F480302A
:1007D0000028F8D100F024FD47E0022E24D100F0DB
:1007E00029FD00BF22480838006800F48030002846
:1007F000F8D1206840F000402060206820F47F009D
:100800002060206840EA05402060206840F0020037
:10081000206000BF16480838006800F480300028C7
:10082000F8D100F0FDFC20E04FF0AA081DE000F038
:1008300001FD00BF0E480838006800F48030002831
:10084000F8D1206800F00040206020682060206817
:1008500040F00200206000BF05480838006800F43E
:1008600080300028F8D100F0DBFC4046BDE8F08184
:10087000143C02400146B1F1006F02D3B1F1016FA7
:1008800011D3B1F1005F02D3094881420BD9084866
:10089000814202D30748814205D90748814204D3E7
:1008A0000648814201D80A2070470C20FCE700006E
:1008B00000C0012000000220004002400050024021
:1008C0002DE9F04105460E4617464FF0CC0800F0E2
:1008D00013FD002409E015F804C031196246002315
:1008E000184600F0BDFC8046641CBC42F3D300F007
:1008F0008DFC4046BDE8F081AA207047F0B5034664
:100900000C46C0264FF0FF31002011E01D5C69400D
:10091000002509E001F000471FB1094F87EA4101B6
:1009200000E049006F1CFDB2202DF3DB451CE8B24E
:10093000A042EBD3914200D1B0263046F0BD00007A
:10094000B71DC104F8B504462078451C601950F85D
:10095000046C291F32462046FFF7D0FFB0280DD186
:10096000012000F099F9E178A0780022FFF708FF54
:1009700000900121684600F01BFA01E000F09EF9AA
:10098000F8BDF8B504462078451C601950F8046C91
:10099000291F32462046FFF7B1FFB0280DD10120B4
:1009A00000F07AF9E178A0780122FFF7E9FE0090E3
:1009B0000121684600F0FCF901E000F07FF9F8BD84
:1009C00070B588B004462078451C601950F8046C56
:1009D000291F32462046FFF791FFB0283CD1012065
:1009E00000F05AF9A078082801DD0D200790A078C2
:1009F000FF2802D0A078082829DAA078FF2802D1A1
:100A0000012001900EE0A078C0F10800E178884252
:100A100006DB00200190A0780390E078049001E0CC
:100A20000B20079001200290022005909DF81C00E9
:100A30000D2803D19DF81C000B2808D000F05CFCA9
:100A400006A901A800F07AFB079000F0DFFB012166
:100A500007A800F0ADF901E000F030F908B070BD72
:100A6000F8B50446002000902078451C601950F825
:100A7000046C291F32462046FFF740FFB0280AD1F8
:100A8000FFF76EFE0090022000F006F90221684692
:100A900000F08EF901E000F011F9F8BD70B50446E0
:100AA0002078451C601950F8046C291F32462046F6
:100AB000FFF724FFB02807D1082000F0EDF8082147
:100AC000034800F075F901E000F0F8F870BD00008F
:100AD00008000020F8B50446002000902078451C4E
:100AE000601950F8046C291F32462046FFF706FFB4
:100AF000B0280AD1FFF73CFE0090012000F0CCF8AE
:100B00000121684600F054F901E000F0D7F8F8BD83
:100B1000F8B504462078451C601950F8046C291F6C
:100B200032462046FFF7EAFEB0280AD1012000F045
:100B3000B3F8FFF7E1FE00900121684600F038F9B4
:100B400001E000F0BBF8F8BD2DE9F8430546287830
:100B5000461CA81950F8047C311F3A462846FFF776
:100B6000CDFEB0281CD1012000F096F8D5F8024047
:100B700004F0010000B9641C2046FFF77BFE0A2840
:100B800007D1A04600900121684600F011F9C04746
:100B900008E00C2000900121684600F009F901E00E
:100BA00000F08CF8BDE8F8832DE9F843044620787E
:100BB000451C601950F8047CD4F8026094F8068053
:100BC000291F3A462046FFF799FEB02815D101208B
:100BD00000F062F83046FFF74DFE0A2806D1424683
:100BE0003146E01DFFF76CFE009001E00C20009004
:100BF0000121684600F0DCF801E000F05FF8BDE894
:100C0000F88300000FB410B596B019A8019002A89F
:100C1000019A189903F050FA02A8FFF726FB84B254
:100C20004FF0FF33224602A9044801F000FD0020E6
:100C3000019016B010BC5DF814FB00000C01002000
:100C400070477047F8B504462078451C601950F885
:100C5000046C291F32462046FFF750FEB0280BD106
:100C6000012000F019F800F00AF8C0B2009001214C
:100C7000684600F09DF801E000F020F8F8BD00B5EE
:100C800087B000F0D7FA684600F0AEFA00F0BEFA7E
:100C9000029880B207B000BD38B50446A5208DF893
:100CA00000008DF801404FF0FF33022269460248F0
:100CB00001F0BDFC38BD00000C01002008B57F200C
:100CC00000904FF0FF3301226946024801F0AFFC6B
:100CD00008BD00000C01002000BF63E0C8213248BD
:100CE000FFF7B8FAFF2301222F49304801F030FC0A
:100CF0002D480278FF23411C2C4801F029FC2A488A
:100D00004078322834D00EDC22281DD006DC14288E
:100D100016D0192824D01F2842D139E025281BD00D
:100D20002B283DD12CE06C2836D004DC3C2823D085
:100D3000442835D10CE0782826D0842830D113E01F
:100D40001948FFF7E5FE2CE01748FFF7A7FE28E05B
:100D50001548FFF785FE24E01348FFF7BBFE20E0AF
:100D60001148FFF7F1FE1CE00F48FFF729FE18E0DD
:100D70000D48FFF719FF14E00B48FFF702FE10E0E3
:100D80000948FFF75DFF0CE00748FFF75BFF08E04D
:100D90000548FFF756FF04E00348FFF7D3FD00E0E6
:100DA00000BF00BF9AE70000100400200C010020E3
:100DB00070B504460D46AAB24FF0FF3321460248F3
:100DC00001F035FC70BD00000C01002010B50022C0
:100DD00001B909E0012901D10A0205E0022901D186
:100DE0000A0201E04FF440720E4B1B6823F440737B
:100DF0000C4C236023461B681343236023461B6867
:100E000023F0F803236023461B68022444EAC0044D
:100E10002343044C236023461B6843F48033236040
:100E200010BD0000103C02401C48006800F4007037
:100E3000B0B11A48006820F400701849086000BF7B
:100E40000846006840F4006008600846006820F426
:100E50000060086000BF0846006840F40070086049
:100E60000E48006800F48060B0B10C48006820F4BF
:100E700080600A49086000BF0846006840F480505E
:100E800008600846006820F48050086000BF0846EB
:100E9000006840F48060086070470000003C024039
:100EA0000A4A126822F44072084B1A601A46126805
:100EB00042F004021A601A4612684FF4803343EA83
:100EC00000231A43014B1A6070470000103C024097
:100ED0000248007800F00C0070470000143C02400B
:100EE000AA2007490978CC2901D1CC2006E0044981
:100EF0000978AA2901D1AA2000E0552070470000F6
:100F0000153C02400248006800F0E0007047000015
:100F1000143C02400148008870470000163C024023
:100F2000074A126822F44072054B1A601A4612688A
:100F30001A601A46126842F001021A600170704786
:100F4000103C024010B50949096821F44071074C72
:100F500021602146096841F44071216021460968F9
:100F600041F0010121600260436010BD103C02406D
:100F7000084A126822F44072064B1A601A46126838
:100F800042F480721A601A46126842F001021A6036
:100F900001807047103C0240084A126822F44072F7
:100FA000064B1A601A46126842F400721A601A461A
:100FB000126842F001021A6001607047103C024062
:100FC0002348006800F0100040B12248C06940F09A
:100FD00010002049C86110201D4908601C480068A5
:100FE00000F0200040B11B48C06940F008001949DA
:100FF000C8612020164908601548006800F04000CC
:1010000040B11448C06940F004001249C861402052
:101010000F4908600E48006800F0800040B10D489C
:10102000C06940F002000B49C8618020084908608F
:101030000748006800F0020040B10648C06940F06F
:1010400020000449C861022001490860704700007F
:101050000C3C0240D804002070B504460025002056
:101060001449C86100F068FA054609E0601C38B10F
:1010700024B100F061FA401BA04201D9032070BDE9
:101080000D48006800F480300028EFD10A4800685D
:1010900000F0010010B1012007490860064800680F
:1010A00000F0F20018B1FFF78BFF0120E7E7002006
:1010B000E5E70000D80400200C3C024010B50446CF
:1010C0000CB9012010BD607920B9002020712046A4
:1010D00000F006F802206071012060710020F1E745
:1010E00008B50A4A016891420FD100BF0021009162
:1010F0000749096841F48051054A116011460968A1
:1011000001F48051009100BF00BF08BD00300240D3
:101110003038024070B5044600F00EFA0646254607
:10112000681C10B104480078054400BF00F004FAC0
:10113000801BA842FAD370BD180000202DE9F041B1
:1011400004460E460127002500BF2548007E0128E1
:1011500002D10220BDE8F08101202149087600BFBC
:101160004CF25030FFF778FF0746002F31D1401E78
:101170003060206801280FD1207C6168FFF790FE65
:101180004CF25030FFF768FF07461648006820F021
:101190000400144908601AE0A56812E0217C284682
:1011A000FFF714FE4CF25030FFF756FF07460D488C
:1011B000006820F0FA000B4908600FB1356005E0C7
:1011C0006D1CD4E902100844A842E7D800BFFFF71D
:1011D0002BFE00BF00200249087600BF3846B9E761
:1011E000D8040020103C024010B504460F202060B7
:1011F000FFF790FEA060FFF773FE2061FFF782FE0D
:101200002076FFF765FE606110BD000003480068AE
:1012100040F000400149086000207047103C024047
:101220000348006840F00100014908600020704751
:10123000143C02400748006800F0010030B1064845
:1012400004490C3908600548086001E00120704736
:101250000020FCE7143C02403B2A19087F6E5D4CDD
:101260002DE9F04106460F4614461D464FF0010891
:1012700000BF1F48007E012802D10220BDE8F08196
:1012800001201B49087600BF4CF25030FFF7E4FE06
:101290008046B8F1000F23D126B9E1B23846FFF7F6
:1012A0003FFE12E0012E04D1A1B23846FFF760FEE6
:1012B0000BE0022E04D121463846FFF76DFE04E014
:1012C00022462B463846FFF73DFE4CF25030FFF7E2
:1012D000C3FE80460748006820F001000549086009
:1012E00000BF00200249087600BF4046C6E7000064
:1012F000D8040020103C024000200949096801F090
:10130000004159B10749064A0C3A1160064911607B
:101310000349096801F0004101B101207047000054
:10132000103C024023016745AB89EFCDF8B502467A
:101330000B460025002400200021DCE0012606FAEF
:1013400001F51E6806EA0504AC4273D15E68022E00
:1013500002D05E68122E13D1CF0802F1200656F893
:1013600027004E07F70E0F26BE40B0434F07FF0E73
:101370001E69BE403043CF0802F1200646F8270020
:1013800010684F000326BE40B0431E7906F00306E6
:101390004F00BE40304310605E68012E08D05E688A
:1013A000022E05D05E68112E02D05E68122E13D177
:1013B00090684F000326BE40B0434F00DE68BE4039
:1013C00030439060506801268E40B0431E79C6F3CA
:1013D00000168E4030435060D0684F000326BE4058
:1013E000B0434F009E68BE403043D0605E6806F058
:1013F0008056B6F1805F7DD100BF00260096404E3A
:10140000366846F480463E4F3E603E46366806F4F7
:101410008046009600BF00BF3A4E8F0856F827005E
:101420008E07370F0F26BE40B043374EB24202D16F
:10143000002624E05EE0354EB24201D101261EE0D6
:10144000334EB24201D1022619E0324EB24201D1EE
:10145000032614E0304EB24201D104260FE02F4E95
:10146000B24201D105260AE02D4EB24201D1062634
:1014700005E02C4EB24201D1072600E008268F0776
:101480003F0FBE4030431F4E8F0846F82700264EC0
:101490003068A0435E6806F48036B6F5803F00D120
:1014A0002043214E3060361D3068A0435E6806F44C
:1014B0000036B6F5003F00D120431B4E361D30608C
:1014C000361D3068A0435E6806F48016B6F5801FAE
:1014D00000D12043144E08363060361D3068A043DA
:1014E0005E6806F40016B6F5001F00D120430E4ECC
:1014F0000C363060491C1029FFF420AFF8BD000005
:101500004438024008380140000002400004024014
:1015100000080240000C024000100240001402408B
:1015200000180240001C0240003C01400AB18161E9
:1015300001E00B04836170470148006870470000B8
:10154000100000207047704770472DE9F0410446B5
:10155000D4F800804646206802F010FC012871D1C2
:10156000206802F075FD08B9BDE8F081206802F03E
:101570006FFD00F40010B0F5001F03D14FF4001010
:1015800021684861206802F063FD00F48010B0F526
:10159000801F03D14FF4801021684861206802F059
:1015A00057FD00F08060B0F1806F03D14FF0806094
:1015B00021684861206802F04BFD00F0020002281B
:1015C00001D121684861206802F042FD00F000501E
:1015D000B0F1005F10D1D6F8400420F02E00C6F81C
:1015E00040042046FFF7AFFF0121206802F00EFD06
:1015F0004FF0005021684861206802F029FD00F09A
:101600008070B0F1807F02D1204601F0D8FD2068C3
:1016100002F01EFD00F00800082805D1204600F069
:10162000E3F8082021684861206802F011FD00F00D
:101630000070B0F1007F27D1206802F05FFC074600
:1016400000251AE035E005F00F0101208840384000
:1016500090B106F5A06000EB4510006800F4004072
:10166000B0F5004F04D1E9B2204601F04BF803E099
:10167000E9B2204601F0FEFA6D1CA068A842E2D84B
:101680004FF0007021684861206802F0E1FCC0F36F
:10169000001070B12068806920F010002168886116
:1016A000204601F0FDFD2068806940F010002168AF
:1016B000886100BF58E730B58BB0044614B90120EB
:1016C0000BB030BD256894F8B90228B9002084F821
:1016D000B802204600F02AF8032084F8B902E86B2B
:1016E00000F4807008B900212161206802F0ECFA52
:1016F000282204F110016846FEF793FD94E80F00DC
:1017000002F07AFA0121206802F0B8FC282204F1E4
:1017100010016846FEF785FD94E80F0002F0F6FB25
:10172000012084F8B9020020CAE7000010B586B095
:101730000446142101A8FEF78DFD2068B0F1A04FEA
:101740004AD100BF002000902448006840F001000A
:10175000224908600846006800F00100009000BFC0
:1017600000BF4815019000200290039001A91C4879
:10177000FFF7DCFD4FF4E0500190022002900020C2
:10178000039004900A20059001A91548FFF7CEFDAB
:1017900000BF1248001D006840F080000F49091D7D
:1017A000086000BF002000900C481430006840F42E
:1017B00080400A49143108600846006800F48040FF
:1017C000009000BF00BF00BF00221146432000F080
:1017D000B1F9432000F09EF906B010BD3038024048
:1017E00000000240704770477047000070B5044623
:1017F0000CB9012070BD94F83D0028B9002084F890
:101800003C00204600F0CEF8242084F83D002068FB
:10181000006820F001002168086000F0A3FA054686
:101820005C496068884206D85B48854201D2012045
:1018300007E0002005E05948854201D2012000E080
:101840000020012800D1D5E75548B5FBF0F6206807
:10185000406820F03F003043216848604D4960688F
:10186000884201D8701C07E04FF4967070434FF423
:101870007A71B0FBF1F0401C2168096A21F03F0148
:1018800008432168086243496068884214D8681E8A
:1018900061684900B0FBF1F0401CC0F30B00042864
:1018A00001D204203DE0681E61684900B0FBF1F000
:1018B000401CC0F30B0034E0A06838B9681E6168B2
:1018C00001EB4101B0FBF1F0401C0AE0681E6168C9
:1018D00001EBC10202EB0111B0FBF1F0401C40F43E
:1018E0008040C0F30B0008B901201AE0A06848B995
:1018F000681E616801EB4101B0FBF1F0401CC0F3D0
:101900000B000CE0681E616801EBC10202EB0111E3
:10191000B0FBF1F0401CC0F30B0040F4804040F4F9
:1019200000402168C9694CF6FF7291430843216861
:10193000C861D4E9070108432168096821F0C001A2
:10194000084321680860D4E90310084321688968C6
:1019500048F2FF329143084321688860D4E90501C9
:1019600008432168C96821F0FF0108432168C86065
:101970002068006840F001002168086000202064B1
:10198000202084F83D000020206384F83E0000BF42
:1019900030E70000A086010080841E0000093D00A1
:1019A00040420F0010B586B00446142101A8FEF78E
:1019B00051FC1B492068884230D100BF00200090B4
:1019C0001848006840F002001649086008460068A0
:1019D00000F00200009000BF00BF4FF410700190B3
:1019E0001220029001200390002004900420059012
:1019F00001A90D48FFF79AFC00BF0020009009489C
:101A00001030006840F400100649103108600846A4
:101A1000006800F40010009000BF00BF06B010BDC9
:101A2000005400403038024000040240034800687F
:101A300003490978084401490860704710000020F4
:101A40001800002010B50D48006840F400700B49E4
:101A500008600846006840F4806008600846006836
:101A600040F480700860032000F0A2F8002000F02D
:101A700007F800F02BF8002010BD0000003C0240E9
:101A800070B504460E4800784FF47A71B1FBF0F05F
:101A90000C490968B1FBF0F5284600F087FC08B155
:101AA000012070BD102C07D200222146501E00F0EC
:101AB00041F80548046001E00120F2E70020F0E76A
:101AC000180000201C0000201400002008B500BFF2
:101AD000002000900E48006840F480400C490860E7
:101AE0000846006800F48040009000BF00BF00BFBF
:101AF00000200090081F006840F08050091F086017
:101B00000846006800F08050009000BF00BF08BD8C
:101B10004438024001460846002809DB00F01F0354
:101B200001229A4043099B0003F1E023C3F80021FE
:101B300000BF70472DE9F05F80460D46164600272E
:101B400002F0CCFA074639462A46334601F0070030
:101B5000C0F1070ABAF1040F02D94FF0040A01E0FC
:101B6000C0F1070AD14600F1040ABAF1070F02D208
:101B70004FF0000A01E0A0F1030AD4464FF0010A39
:101B80000AFA09FAAAF1010A0AEA020A0AFA0CFA9E
:101B90004FF0010B0BFA0CFBABF1010B0BEA030B43
:101BA0004AEA0B042146404602F0A0FABDE8F09F45
:101BB00000BF00F00702064B19684FF6FF031940FB
:101BC000044B0B4343EA0221014B196000BF7047ED
:101BD0000CED00E00000FA0570B504460D460CB9A6
:101BE000012070BD5848006800F00F00A84209D2DB
:101BF00055490D700846006800F00F00A84201D05A
:101C00000120EEE7207800F0020002281DD12078A4
:101C100000F00400042805D14C48006840F4E0506E
:101C20004A490860207800F00800082805D1474894
:101C3000006840F46040454908604448006820F06E
:101C4000F000A168084341490860207800F00100D5
:101C5000A8B36068012807D13C4808380068C0F381
:101C60004040B8B90120BCE76068022802D0606833
:101C7000032807D1354808380068C0F3406048B9E8
:101C80000120AEE7314808380068C0F3400008B9C9
:101C90000120A6E72D48006820F003006168084392
:101CA0002A490860FFF748FC064609E0FFF744FCB4
:101CB000801B41F28831884202D9032091E707E076
:101CC0002248006800F00C006168B0EB810FEDD194
:101CD0001D48006800F00F00A84209D91A490D708C
:101CE0000846006800F00F00A84201D0012078E704
:101CF000207800F00400042807D11448006820F47C
:101D0000E050E168084311490860207800F00800BD
:101D1000082808D10D48006820F46040216940EA95
:101D2000C1000A49086000F03DF808490968C1F39C
:101D30000311074A515CC840064908600020FFF7BC
:101D40009FFE00204DE70000003C024008380240A2
:101D5000684A00081C000020014800687047000025
:101D60001C00002000B5FFF7F7FF04490968C1F324
:101D70008221034A515CC84000BD0000083802407F
:101D8000784A000800B5FFF7E7FF04490968C1F386
:101D90004231034A515CC84000BD0000083802408F
:101DA000784A00082DE9F047002400250026A146C6
:101DB0002548006800F00C0020B1042805D0082850
:101DC0003AD105E0DFF8849039E0DFF8849036E01E
:101DD0001D48001F006800F03F041B48001F0068FA
:101DE00000F4800078B11A481749091F0968C1F347
:101DF0008811A0FB01700146224600233846FEF7F9
:101E0000DFF905460EE011480F49091F0968C1F3C3
:101E10008811A0FB01700146224600233846FEF7D8
:101E2000CFF905460848001F0068C0F30140401C78
:101E30004600B5FBF6F902E0DFF8109000BF00BFE6
:101E40004846BDE8F0870000083802400024F4004E
:101E500000127A00F8B504460CB90120F8BD2078CC
:101E600000F00100002874D0F948006800F00C0070
:101E700004280DD0F648006800F00C00082813D1A3
:101E8000F348001F006800F48000B0F5800F0BD10C
:101E9000EF4808380068C0F34040002859D0606817
:101EA000002856D10120D9E700BF6068B0F5803F17
:101EB00008D1E7480838006840F48030E449083920
:101EC00008601EE06068B0F5A02F0DD1E04808382A
:101ED000006840F48020DE49083908600846006840
:101EE00040F4803008600CE0D9480838006820F4DD
:101EF0008030D749083908600846006820F48020FF
:101F0000086000BF606890B1FFF716FB054606E069
:101F1000FFF712FB401B642801D903209EE7CC4841
:101F200008380068C0F340400028F1D011E0FFF706
:101F300003FB054606E0FFF7FFFA401B642801D9C2
:101F400003208BE7C24808380068C0F340400028EF
:101F5000F1D1207800F0020002285FD1BC4800686F
:101F600000F00C0058B1BA48006800F00C000828D6
:101F70001CD1B748001F006800F48000B0B9B44815
:101F800008380068C0F3400020B1E068012801D0A3
:101F9000012063E7AE480838006820F0F8002169A6
:101FA00040EAC100AA490839086037E0E06800B398
:101FB0000120A8490860FFF7BFFA054606E0FFF7D1
:101FC000BBFA401B022801D9032047E7A048083884
:101FD0000068C0F340000028F1D09D480838006830
:101FE00020F0F800216940EAC100994908390860E9
:101FF00014E0002097490860FFF79EFA054606E0C6
:10200000FFF79AFA401B022801D9032026E79048DF
:1020100008380068C0F340000028F1D1207800F0B3
:10202000080008282CD16069A8B101208A490860FD
:10203000FFF782FA054606E0FFF77EFA401B02280A
:1020400001D903200AE782486C300068C0F34000E1
:102050000028F1D014E000207F490860FFF76CFAF7
:10206000054606E0FFF768FA401B022801D9032065
:10207000F4E677486C300068C0F340000028F1D1E6
:10208000207800F00400042870D100267048383011
:10209000006800F0805090B900BF002000906C48AC
:1020A0003830006840F0805069493831086008468F
:1020B000006800F08050009000BF00BF0126674814
:1020C000006800F48070B0B96448006840F4807023
:1020D00062490860FFF730FA054606E0FFF72CFA80
:1020E000401B022801D90320B8E65C48006800F4D0
:1020F00080700028F2D000BFA068012808D15448A1
:102100006830006840F001005149683108601DE006
:10211000A06805280DD14E486830006840F00400E2
:102120004B49683108600846006840F001000860CB
:102130000CE047486830006820F0010044496831ED
:1021400008600846006820F00400086000BFA0682E
:10215000A8B1FFF7F1F9054609E0FFF7EDF9401BDB
:1021600041F28831884202D9032077E626E03848D8
:1021700068300068C0F340000028EED013E0FFF79D
:10218000DBF9054608E0FFF7D7F9401B41F288313B
:10219000884201D9032061E62D4868300068C0F309
:1021A00040000028EFD1012E07D1294838300068BF
:1021B00020F0805026493831086000BFA069B8B3CC
:1021C0002348006800F00C0008285ED0A0690228AF
:1021D00046D100201F490866FFF7AEF9054606E024
:1021E000FFF7AAF9401B022801D9032036E6184858
:1021F00008380068C0F340600028F1D1D4E9070135
:102200000843616A40EA81110122A06AC2EB5000D2
:1022100041EA00412C20005D41EA00600C49091FA1
:10222000086001200B490866FFF786F9054607E0BC
:102230002DE0FFF781F9401B022801D903200DE6AC
:10224000034808380068C0F340600028F1D01EE061
:102250000838024000004742800E474200700040AC
:1022600000200C490866FFF767F9054606E0FFF70E
:1022700063F9401B022801D90320EFE506480068F6
:10228000C0F340600028F2D101E00120E6E5002023
:10229000E4E50000000047420038024010B5044663
:1022A0000CB9012010BD606A00B900BF0021A16215
:1022B00094F8510028B9002084F85000204600F01E
:1022C00033F8022084F851002068006820F04000B4
:1022D00021680860D4E901010843E16808432169E5
:1022E000084361690843218B01F400710843E169E7
:1022F0000843216A0843A16A084321680860042151
:10230000A06901EA1040616A0843216848602068BA
:10231000C06920F400602168C86100206065012068
:1023200084F851000020BDE710B586B004461421A2
:1023300001A8FDF78FFF1A49206888422ED100BFFF
:10234000002000901748006840F48050154908604C
:102350000846006800F48050009000BF00BF00BF36
:10236000002000900F481438006840F001000D492B
:10237000143908600846006800F00100009000BFB2
:1023800000BFE02001900220029000200390049002
:102390000520059001A90448FEF7C8FF06B010BD4E
:1023A00000300140443802400000024070B504464D
:1023B0002546681EB0F1807F01D301200FE0681E22
:1023C0004FF0E02148610F214FF0FF3001F08EFE09
:1023D00000204FF0E021886107200861002070BDD7
:1023E00010B504460CB9012010BDA06900B100E091
:1023F00000BF94F8390028B9002084F8380020463E
:1024000000F028F8242084F839002068C06820F4FF
:1024100000502168C860204601F004FA2068006975
:1024200020F49040216808612068406920F02A006B
:10243000216848612068C06840F400502168C86085
:102440000020E063202084F8390084F83A0000205E
:10245000CAE7000010B586B00446142101A8FDF7B4
:10246000F9FE36492068884230D100BF0020009034
:102470003348006840F4003031490860084600687D
:1024800000F40030009000BF00BF00BF00200090AB
:102490002B481038006840F00100294910390860C5
:1024A0000846006800F00100009000BF00BF0C204B
:1024B0000190022002900120039003200490072045
:1024C000059001A91F48FEF731FF34E01E4920683E
:1024D000884230D100BF002000901948006840F4C5
:1024E0008020174908600846006800F480200090AA
:1024F00000BF00BF00BF00200090114810380068E6
:1025000040F004000E49103908600846006800F0E9
:102510000400009000BF00BF4FF440600190022013
:10252000029001200390032004900720059001A948
:102530000648FEF7FBFE06B010BD00000044004058
:1025400040380240000002400048004000080240BD
:102550002DE9F84304460D4616461F464FF0000984
:1025600094F83A00202860D105B116B90120BDE8E1
:10257000F88300BF94F83800012801D10220F6E763
:10258000012084F8380000BF0020E063222084F896
:102590003A00FEF7D1FF8146A685E68539E0E08D59
:1025A000401EE085A068B0F5805F1BD14B4600223D
:1025B00020212046009701F0E9FA08B10320D6E770
:1025C000A846206938B920684068C0F30800A8F818
:1025D0000000AD1C1DE020684068C0B2A8F80000F3
:1025E0006D1C16E04B46002220212046009701F08A
:1025F000CDFA08B10320BAE7206920B92068406805
:1026000005F8010B05E02068406800F07F0005F840
:10261000010BE08D0028C2D1202084F83A0000BFD1
:10262000002084F8380000BFA1E702209FE72DE9D1
:10263000F84304460D4616461F464FF0000994F82D
:10264000390020285CD105B116B90120BDE8F88316
:1026500000BF94F83800012801D10220F6E70120DC
:1026600084F8380000BF0020E063212084F839009E
:10267000FEF762FF8146A684E6842BE0E08C401ED4
:10268000E084A068B0F5805F16D14B46002280211F
:102690002046009701F07AFA08B10320D6E7A84651
:1026A000B8F80000C0F3080021684860206908B944
:1026B000AD1C0FE06D1C0DE04B4600228021204632
:1026C000009701F063FA08B10320BFE715F8010B8A
:1026D00021684860E08C0028D0D14B460022402180
:1026E0002046009701F052FA08B10320AEE72020FF
:1026F00084F8390000BF002084F8380000BFA5E747
:102700000220A3E72DE9F04705468846D5F800905A
:102710004E46444606F5A06000EB4410806800F089
:102720000400042812D1042106F5A06000EB441037
:10273000816006F5A06000EB4410C06840F0020123
:1027400006F5A06000EB4410C1606DE006F5A060E6
:1027500000EB4410806800F02000202806D12021E2
:1027600006F5A06000EB441081605DE006F5A06016
:1027700000EB4410806800F00800082825D106F519
:10278000A06000EB4410C06840F0020106F5A060B4
:1027900000EB4410C160052104EB840205F1380010
:1027A00000EBC20080F82510102106F5A06000EBB8
:1027B00044108160082106F5A06000EB44108160A0
:1027C000E1B2286801F0DFFA2EE006F5A06000EB28
:1027D0004410806800F48060B0F5806F24D106F565
:1027E000A06000EB4410C06840F0020106F5A06054
:1027F00000EB4410C160E1B2286801F0C4FA102176
:1028000006F5A06000EB44108160082104EB84020F
:1028100005F1380000EBC20080F82510C90106F56B
:10282000A06000EB4410816006F5A06000EB44104E
:10283000806800F40070B0F5007F17D106F5A06045
:1028400000EB4410C06840F0020106F5A06000EB08
:102850004410C160E1B2286801F095FA4FF40071AC
:1028600006F5A06000EB4410816001E206F5A0606F
:1028700000EB4410806800F0010000287ED0286939
:10288000A8B104EB840105F1380000EBC100016937
:1028900006F5A06000EB44100069C0F31200091AAD
:1028A00004EB840205F1380000EBC2004161012114
:1028B00004EB840205F1380000EBC20080F825101B
:1028C000002104EB840205F1380000EBC200016234
:1028D000012106F5A06000EB4410816004EB840147
:1028E00005F1380000EBC100C07940B104EB840170
:1028F00005F1380000EBC100C079022816D106F5B9
:10290000A06000EB4410C06840F0020106F5A06032
:1029100000EB4410C160E1B2286801F034FA1021E4
:1029200006F5A06000EB441081602BE004EB84010D
:1029300005F1380000EBC100C079032822D106F56B
:10294000A06000EB4410006840F0005106F5A06064
:1029500000EB44100160012104EB840205F1380012
:1029600000EBC20080F8241004EB840305F138006A
:1029700000EBC30090F82420E1B200E013E0284609
:10298000FEF7E2FD04EB840105F1380000EBC10025
:10299000007E80F0010104EB840205F1380000EBB9
:1029A000C200017664E106F5A06000EB4410806887
:1029B00000F00200022871D106F5A06000EB44107F
:1029C000C06820F0020106F5A06000EB4410C16071
:1029D00004EB840105F1380000EBC10090F82500FC
:1029E000012809D1012104EB840205F1380000EB34
:1029F000C20080F824108BE004EB840105F138005C
:102A000000EBC10090F82500052809D1052104EB51
:102A1000840205F1380000EBC20080F8241077E052
:102A200004EB840105F1380000EBC10090F82500AB
:102A3000062809D004EB840105F1380000EBC10041
:102A400090F82500082842D104EB840105F13800F4
:102A500000EBC100006A401C04EB840205F1380160
:102A600001EBC201086204EB840105F1380000EBC0
:102A7000C100006A032812D9002104EB840205F189
:102A8000380000EBC2000162042104EB840205F16E
:102A9000380000EBC20080F8241009E04BE002216E
:102AA00004EB840205F1380000EBC20080F824102A
:102AB00006F5A06000EB4410076827F0804747F058
:102AC000004706F5A06000EB4410076020E004EB2F
:102AD000840105F1380000EBC10090F825000328BF
:102AE00016D1022104EB840205F1380000EBC2008C
:102AF00080F8241006F5A06000EB4410076827F06A
:102B0000804747F0004706F5A06000EB44100760DF
:102B1000022106F5A06000EB4410816004EB840301
:102B200005F1380000EBC30090F82420E1B22846FC
:102B3000FEF70AFD9CE006F5A06000EB44108068FB
:102B400000F0800080282ED106F5A06000EB441034
:102B5000C06840F0020106F5A06000EB4410C160BF
:102B600004EB840105F1380000EBC100006A401C51
:102B700004EB840205F1380101EBC2010862062171
:102B800004EB840205F1380000EBC20080F8251048
:102B9000E1B2286801F0F7F8802106F5A06000EBAB
:102BA0004410816064E006F5A06000EB441080688A
:102BB00000F0100010285BD104EB840105F138000F
:102BC00000EBC100C079032818D1002104EB840276
:102BD00005F1380000EBC200016206F5A06000EBD1
:102BE0004410C06840F0020106F5A06000EB4410FC
:102BF000C160E1B2286801F0C6F833E004EB84015B
:102C000005F1380000EBC100C07940B104EB84014C
:102C100005F1380000EBC100C079022822D1002163
:102C200004EB840205F1380000EBC2000162286960
:102C3000C0B9032104EB840205F1380000EBC200A7
:102C400080F8251006F5A06000EB4410C06840F045
:102C5000020106F5A06000EB4410C160E1B22868F3
:102C600001F091F8102106F5A06000EB441081609E
:102C7000BDE8F0872DE9F04705460F46D5F80090EE
:102C80004E463C4606F5A06000EB4410806800F01C
:102C90000400042812D1042106F5A06000EB4410C2
:102CA000816006F5A06000EB4410C06840F00201AE
:102CB00006F5A06000EB4410C1607EE206F5A0605E
:102CC00000EB4410806800F02000202830D1202143
:102CD00006F5A06000EB4410816004EB840105F16F
:102CE000380000EBC10040790128E6D1002104EB57
:102CF000840205F1380000EBC2004171022104EBAF
:102D0000840205F1380000EBC20080F8241006F5BB
:102D1000A06000EB4410C06840F0020106F5A0601E
:102D200000EB4410C160E1B2286801F02CF844E2E5
:102D300006F5A06000EB4410806800F040004028D9
:102D40002FD1042104EB840205F1380000EBC2000E
:102D500080F82510012104EB840205F1380000EB16
:102D6000C2004171002104EB840205F1380000EB40
:102D7000C200016206F5A06000EB4410C06840F09C
:102D8000020106F5A06000EB4410C160E1B22868C2
:102D900000F0F9FF402106F5A06000EB44108160CF
:102DA0000BE206F5A06000EB4410806800F40070B0
:102DB000B0F5007F17D106F5A06000EB4410C068A5
:102DC00040F0020106F5A06000EB4410C160E1B2E2
:102DD000286800F0D8FF4FF4007106F5A06000EB02
:102DE00044108160E9E106F5A06000EB44108068C2
:102DF00000F0010030B3002104EB840205F138003B
:102E000000EBC200016206F5A06000EB4410C06850
:102E100040F0020106F5A06000EB4410C160E1B291
:102E2000286800F0B0FF012106F5A06000EB441017
:102E3000816004EB840205F1380000EBC20080F8E9
:102E40002510BAE106F5A06000EB4410806800F0A0
:102E5000080008281FD1082106F5A06000EB4410E7
:102E6000816006F5A06000EB4410C06840F00201EC
:102E700006F5A06000EB4410C160E1B2286800F0E4
:102E800082FF052104EB840205F1380000EBC2004B
:102E900080F8251091E106F5A06000EB44108068F1
:102EA00000F0100010283FD1002104EB840205F14E
:102EB000380000EBC2000162032104EB840205F13B
:102EC000380000EBC20080F8251004EB840105F106
:102ED000380000EBC100407978B904EB840105F1BA
:102EE000380000EBC100007938B9012104EB8402FD
:102EF00005F1380000EBC200417106F5A06000EB5F
:102F00004410C06840F0020106F5A06000EB4410D8
:102F1000C160E1B2286800F036FF102106F5A0601C
:102F200000EB4410816048E106F5A06000EB44101E
:102F3000806800F0800080281FD106F5A06000EBBB
:102F40004410C06840F0020106F5A06000EB441098
:102F5000C160E1B2286800F016FF062104EB84028C
:102F600005F1380000EBC20080F82510802106F53D
:102F7000A06000EB441081601FE106F5A06000EB4B
:102F80004410806800F48060B0F5806F25D106F5AC
:102F9000A06000EB4410C06840F0020106F5A0609C
:102FA00000EB4410C160E1B2286800F0ECFE102193
:102FB00006F5A06000EB44108160890106F5A06071
:102FC00000EB44108160082104EB840205F1380015
:102FD00000EBC20080F82510EFE006F5A06000EBE2
:102FE0004410806800F0020002289CD106F5A06021
:102FF00000EB4410C06820F0020106F5A06000EB71
:103000004410C16004EB840105F1380000EBC100FD
:1030100090F8250001282BD1012104EB840205F151
:10302000380000EBC20080F8241004EB840105F1A5
:10303000380000EBC100C079022808D004EB8401FD
:1030400005F1380000EBC100C07903280FD104EB73
:10305000840105F1380000EBC100407E80F00101E1
:1030600004EB840205F1380000EBC200417692E0E7
:1030700004EB840105F1380000EBC10090F8250055
:10308000032809D1022104EB840205F1380000EB8A
:10309000C20080F824107EE004EB840105F13800C2
:1030A00000EBC10090F82500042809D1022104EBAF
:1030B000840205F1380000EBC20080F824106AE0B9
:1030C00004EB840105F1380000EBC10090F8250005
:1030D000052809D1052104EB840205F1380000EB35
:1030E000C20080F8241056E004EB840105F138009A
:1030F00000EBC10090F82500062809D004EB8401FC
:1031000005F1380000EBC10090F82500082842D1F5
:1031100004EB840105F1380000EBC100006A401C9B
:1031200004EB840205F1380101EBC201086204EBF3
:10313000840105F1380000EBC100006A032811D9B1
:10314000002104EB840205F1380000EBC2000162AB
:10315000042104EB840205F1380000EBC20080F882
:10316000241008E0022104EB840205F1380000EB92
:10317000C20080F8241006F5A06000EB4410D0F8DF
:10318000008028F0804848F0004806F5A06000EB79
:103190004410C0F80080022106F5A06000EB441046
:1031A000816004EB840305F1380000EBC30090F864
:1031B0002420E1B22846FEF7C7F9BDE8F0877CB5C8
:1031C000044626683546D5F840040190D5F84004F9
:1031D0000090009820F02E000090019800F002006E
:1031E000022810D1019800F0010040B120688069E8
:1031F00020F00050216888612046FEF7A3F900986E
:1032000040F002000090019800F00800082839D131
:10321000009840F008000090019800F00400042895
:1032200021D1A06902280FD1019800F4C020B0F587
:10323000802F04D10221206800F0E8FE0CE001217B
:10324000206800F0E3FE07E0E068012804D14EF6B4
:10325000602140F2044041512046FEF7C4FA204666
:10326000FEF770F90EE02046FEF7BCFAD5F84004F0
:1032700020F02E00C5F840042068806940F000501E
:1032800021688861019800F02000202803D100986F
:1032900040F0200000900098C5F840047CBD00007C
:1032A0002DE9F05F0546D5F800A057462868D0F80C
:1032B000208008F00F04C8F3434BC8F30A16BBF193
:1032C000020F09D0BBF1030F66D0BBF1050F61D02F
:1032D000BBF1070F5FD160E0002E5AD004EB8401F0
:1032E00005F1380000EBC100C068E8B3B2B204EBEE
:1032F000840C05F1380303EBCC03D968286800F08F
:10330000ACFE04EB840105F1380000EBC100C0689D
:10331000811904EB840205F1380000EBC200C160A2
:1033200004EB840105F1380000EBC100406981190C
:1033300004EB840205F1380000EBC200416107F59F
:10334000A06000EB441000691649084060B107F521
:10335000A06000EB4410D0F8009029F0804949F0BB
:10336000004907F5A06000E013E000EB4410C0F84E
:10337000009004EB840105F1380000EBC100007EF1
:1033800080F0010104EB840205F1380000EBC2007B
:10339000017603E002E000BF00BF00BF00BFBDE850
:1033A000F09F00000000F81F00BFFEE710B50548C1
:1033B000054908600846FDF781FE08B1FDF7CEF922
:1033C00010BD0000003002400000002000B587B0B2
:1033D000142102A8FCF73EFF00BF002001907348B3
:1033E000006840F01000714908600846006800F06D
:1033F0001000019000BF00BF00BF002001900846F0
:10340000006840F0040008600846006800F004000E
:10341000019000BF00BF00BF002001900846006877
:1034200040F0800008600846006800F080000190CD
:1034300000BF00BF00BF002001900846006840F0B8
:10344000010008600846006800F00100019000BF1C
:1034500000BF00BF002001900846006840F0020055
:1034600008600846006800F00200019000BF00BF3D
:1034700000BF002001900846006840F00800086086
:103480000846006800F00800019000BF00BF00225D
:1034900008214748FEF74AF8012211464548FEF741
:1034A00045F800224FF210014348FEF73FF808208C
:1034B00002900120039000200490059002A93C484E
:1034C000FDF734FF01200290039000200490059046
:1034D00002A93848FDF72AFF082002900220039035
:1034E0000020049005900520069002A93148FDF7C0
:1034F0001DFF01200290314803900020049002A992
:103500002F48FDF713FF10200290022003900020A7
:10351000049005900620069002A92948FDF706FFB1
:103520000420029000200390049002A92548FDF792
:10353000FDFE4FF480600290022003900020049072
:1035400005900520069002A91E48FDF7EFFE4FF2F8
:10355000100002900120039000200490059002A921
:103560001548FDF7E3FE4FF48450029002200390CB
:103570000020049005900620069002A90D48FDF752
:10358000D5FE2020029000200390049002A90A4852
:10359000FDF7CCFE02200290084803900020049022
:1035A00002A90348FDF7C2FE07B000BD3038024053
:1035B0000010024000080240000C024000001210FF
:1035C000000002400004024010B50B480B4908609F
:1035D0000B484860002109488160C1604FF4804178
:1035E0000161002141618161C1610162FEF7FEF864
:1035F00008B1FDF7B3F810BD0054004020000020D2
:10360000A086010010B50E480E4908604FF4827084
:10361000486000210B488160C160016141614FF445
:10362000007181610021C1610162416281620A21F0
:10363000C162FEF733FE08B1FDF790F810BD00003F
:10364000003001407400002010B50B480B490860A1
:103650004FF4E1304860002108488160C160016199
:103660000C21416100218161C161FEF7B9FE08B101
:10367000FDF774F810BD000000440040CC000020AD
:1036800010B50B480B4908604FF4E1304860002149
:1036900008488160C16001610C21416100218161A4
:1036A000C161FEF79DFE08B1FDF758F810BD00009E
:1036B000004800400C01002010B54FF0A04009491F
:1036C00008600821074881600121C1600021016173
:1036D000022181610021C161FDF7EDFF08B1FDF715
:1036E0003DF810BD4C01002000BFFEE77047000010
:1036F00010B50248FDF729FF10BD00004C01002065
:103700007047704710B5FEF791F910BD00B593B042
:10371000302107A8FCF79EFD142102A8FCF79AFDB2
:1037200000BF002001902448006840F080502249EA
:1037300008600846006800F08050019000BF00BF9C
:1037400000BF002001901D48006840F480401B49E4
:1037500008600846006800F48040019000BF00BF88
:10376000012007900004089002200D9041050E9161
:1037700008210F914FF4A871109102211191072196
:10378000129107A8FEF766FB08B1FCF7E7FF0F20D0
:10379000029002200390002004904FF4A050059066
:1037A0004FF480500690052102A8FEF715FA08B1E3
:1037B000FCF7D4FF13B000BD403802400070004059
:1037C0001448006840F4700012490860124800680C
:1037D00040F001001049086000200F4908310860DE
:1037E0000D4800680D4908400B4908600C48091D48
:1037F0000860081F006820F48020091F086000206E
:1038000005490C3108604FF00060024980390860BA
:103810007047000088ED00E000380240FFFFF6FE30
:10382000103000242DE9F04104462068006920F49E
:103830004050E1680843216808612169A068084395
:1038400061690843E16940EA01052068C06849F2FE
:103850000C61884328432168C8602068406920F4CF
:103860004070A169084321684861E069B0F5004FE4
:103870007ED1C4492068884203D0C3492068884269
:103880005DD1FEF77FFA00EBC00101EB001061682B
:103890004900B0FBF1F06421B0FBF1F00601FEF746
:1038A00071FA00EBC00101EB001061684900B0FB48
:1038B000F1F7FEF767FA00EBC00101EB0010616859
:1038C0004900B0FBF1F06421B0FBF1F000EBC00166
:1038D00001EB0010A7EB8000322101EBC000642156
:1038E000B0FBF1F000F0F80006EB4006FEF74AFAF4
:1038F00000EBC00101EB001061684900B0FBF1F77B
:10390000FEF740FA00EBC00101EB001061684900CE
:10391000B0FBF1F06421B0FBF1F000EBC00101EB72
:103920000010A7EB8000322101EBC0006421B0FB46
:10393000F1F000F0070030442168886020E1FEF7D4
:1039400011FA00EBC00101EB001061684900B0FB07
:10395000F1F06421B0FBF1F00601FEF703FA00EB91
:10396000C00101EB001061684900B0FBF1F700E015
:1039700045E0FEF7F7F900EBC00101EB00106168CC
:103980004900B0FBF1F06421B0FBF1F000EBC001A5
:1039900001EB0010A7EB8000322101EBC000642195
:1039A000B0FBF1F000F0F80006EB4006FEF7DAF9A4
:1039B00000EBC00101EB001061684900B0FBF1F7BA
:1039C000FEF7D0F900EBC00101EB0010616849007F
:1039D000B0FBF1F06421B0FBF1F000EBC00101EBB2
:1039E0000010A7EB8000322101EBC0006421B0FB86
:1039F000F1F000F00700304421688860C0E06149C0
:103A00002068884203D06049206888425CD1FEF774
:103A1000B9F900EBC00101EB001061688900B0FB4F
:103A2000F1F6FEF7AFF900EBC00101EB00106168A1
:103A30008900B0FBF1F06421B0FBF1F000EBC001B4
:103A400001EB0010A6EB8000322101EB0010642195
:103A5000B0FBF1F000F0F006FEF794F900EBC001C6
:103A600001EB001061688900B0FBF1F06421B0FB4C
:103A7000F1F006EB0016FEF785F900EBC00101EB53
:103A8000001061688900B0FBF1F7FEF77BF900EBED
:103A9000C00101EB001061688900B0FBF1F0642106
:103AA000B0FBF1F000EBC00101EB0010A7EB8000D0
:103AB000322101EB00106421B0FBF1F000F00F00A7
:103AC0003044216888605BE0FEF74CF900EBC001F0
:103AD00001EB001061688900B0FBF1F6FEF742F9D6
:103AE00000EBC00101EB001061688900B0FBF1F050
:103AF0006421B0FBF1F000EBC00101EB0010A6EB7C
:103B00008000322101EB00106421B0FBF1F000F0E5
:103B1000F006FEF727F900EBC00101EB0010616829
:103B20008900B0FBF1F06421B0FBF1F006EB001668
:103B3000FEF718F900EBC00101EB00106168890085
:103B4000B0FBF1F7FEF70EF900EBC00101EB00103E
:103B500061688900B0FBF1F06421B0FBF1F000EB8B
:103B6000C00101EB0010A7EB8000322101EB001037
:103B70006421B0FBF1F000F00F0030442168886050
:103B8000BDE8F08100100140001401402DE9F04132
:103B900004460D4617469846069E21E0701CF8B173
:103BA0002EB1FDF7C9FCA0EB0800B04218D920687F
:103BB000C06820F4D0702168C8602068406920F097
:103BC000010021684861202084F8390084F83A0017
:103BD00000BF002084F8380000BF0320BDE8F0815A
:103BE000206800682840A84201D1012000E00020A0
:103BF000B842D3D00020F1E70FB470B504460A985C
:103C0000012817D1A06B20F48030A063E0681A4926
:103C10000840E060E06820F44010E060119801285E
:103C200003D1E06840F48010E060204600F026F800
:103C3000054612E0E06840F04000E060204600F0F9
:103C40001DF805460E9820B9A06B40F48030A063A3
:103C500003E0A06B20F48030A0630898012807D10E
:103C6000A06840F00600A060A06840F02000A060BE
:103C7000284670BC5DF814FBBFFFBDFF0146002263
:103C800000BF501C02460F4B984201D903207047D9
:103C9000086900F000400028F3D00022086940F0D5
:103CA0000100086100BF501C0246064B984201D932
:103CB0000320ECE7086900F001000028F3D100BF01
:103CC000E5E70000400D03000146886820F0010090
:103CD00088600020704708B5024613460020009017
:103CE000D3F840040090009820F02E000090009837
:103CF00000F4805030B9012904D1009840F480507C
:103D0000C3F84004009800F48050B0F5805F05D1FE
:103D100021B9009820F48050C3F84004002008BD69
:103D2000014600221020086100BF501C0246064BCD
:103D3000984201D903207047086900F0100010284C
:103D4000F3D00020F7E70000400D030010B5024655
:103D50000023202040EA8110106100BF581C034658
:103D6000054CA04201D9032010BD106900F02000CD
:103D70002028F3D00020F7E7400D030001464869F2
:103D800000F001007047F0B503460C461A46214684
:103D9000002502F5A06000EB41100068C0F38146E9
:103DA0000EB1022E53D102F5A06000EB4110006865
:103DB00040F0804702F5A06000EB41100760D86A30
:103DC00000F47F00A8BB02F5A06000EB4110006882
:103DD00020F0004702F5A06000EB4110076002F5FB
:103DE000A06000EB4110006840F0004702F5A060C1
:103DF00000EB4110076002F5A06000EB4110006885
:103E000020F4004702F5A06000EB4110076000BFFE
:103E1000681C0546B0F57A7F00D909E002F5A0607C
:103E200000EB4110006800F00040B0F1004FEFD00F
:103E300062E0FFE702F5A06000EB4110006840F08F
:103E4000004702F5A06000EB4110076054E002F566
:103E5000A06000EB4110006840F0804702F5A060D0
:103E600000EB411007604FF48260805800F47F003F
:103E7000A8BB02F5A06000EB4110006820F00047ED
:103E800002F5A06000EB4110076002F5A06000EBB6
:103E90004110006840F0004702F5A06000EB4110BF
:103EA000076002F5A06000EB4110006820F40047B5
:103EB00002F5A06000EB4110076000BF681C0546DA
:103EC000B0F57A7F00D909E002F5A06000EB41105F
:103ED000006800F00040B0F1004FEFD00CE0FFE7C9
:103EE00002F5A06000EB4110006840F0004702F5C9
:103EF000A06000EB411007600020F0BD01460A46BB
:103F000040F21440805880B2704700000FB470B582
:103F1000044625460020C5F8000EA06B40F40010B2
:103F2000A063A06B20F40020A063A06B20F480208D
:103F3000A063E06B00F4807080B10798032806D17D
:103F4000D5F8000440F00400C5F800040CE0D5F8F2
:103F5000000420F00400C5F8000405E0D5F80004D2
:103F600020F00400C5F8000410212046FFF7EEFE03
:103F70002046FFF7D5FE00260DE04FF0FF3105F596
:103F8000A06000EB46108160002105F5A06000EB09
:103F90004610C160761C0698B042EED8012120463A
:103FA000FFF799FEC820FDF7B5F80020A061401E7C
:103FB0006061E06B00F4807040B14FF400706062AB
:103FC0000D48A0620D48C4F8000106E08020606240
:103FD0000B48A0620B48C4F80001089818B9A06902
:103FE00040F01000A061A06907490843A0610020CB
:103FF00070BC5DF814FB0000000200010003E0004B
:1040000080006000E0004000080020A310B50246D8
:104010000B461146D1F8000420F00300C1F800045B
:10402000D1F8000403F003042043C1F80004012B7D
:1040300005D14BF6803440F20440445006E0022B98
:1040400004D141F2707440F204404450002010BD8D
:10405000014648698A6910407047F0B503461E461C
:104060000846D71CBD08002405E04FF48057BF590F
:104070000760001D641CAC42F7D3F0BD70B5044668
:104080000D46E06820F0C040E060012D04D1E068FA
:1040900040F00050E06007E025B9E06840F0804063
:1040A000E06001E0012070BD3220FDF733F8002010
:1040B000F9E700BFFEE7000037B514460846064B97
:1040C0006A46214600F0F8F804466946002000F0F0
:1040D0008AFC20463EBD0000E7490008024800680F
:1040E000C0F30220704700000CED00E010B500287E
:1040F00004DB0A07130E054A135406E00A07140EE0
:10410000034A00F00F031B1FD45410BD00E400E06D
:1041100018ED00E002E008C8121F08C1002AFAD119
:1041200070477047002001E001C1121F002AFBD137
:10413000704700002DE9FF5F82B00021DDE9043007
:10414000020DDDF840B0034318D044F61050A2F23F
:10415000FF3242431514119801281FD0A5EB0B0024
:10416000401C5FEA000A4FF000064E4FDFF838911E
:10417000B046504615D5CAF1000413E01198012449
:104180004AA3012801D16FEA0B010298119AC0E9F4
:104190000031C0E9024206B0BDE8F09FCBF100005B
:1041A000DFE704460021404A491842EB0450CDE9BC
:1041B000001012E0E00707D032463B464046494631
:1041C000FCF736F98046894632463B46104619468A
:1041D000FCF72EF906460F466410002CEAD1DDE903
:1041E0000401DDE90023BAF1000F06DAFCF720F93B
:1041F00042464B46FCF71CF905E0FCF78BF94246BA
:104200004B46FCF787F904460E460022284BFCF784
:1042100009FA03D84FF0FF30014607E00022254B92
:1042200020463146FCF75DF8FCF7E3F9102409E07D
:10423000002C0ADB0A220023FBF7C2FF039B30326B
:104240001A55641E50EA0102F2D1641C039AC4F1AB
:1042500011031444119A012A03D0012208430DD1FD
:104260000AE0084304D000204FF0110B119072E7D0
:10427000A3EB0B056D1E0DE05B4504DD4FF0000266
:1042800005F1010504E003DA4FF00002A5F1010594
:10429000002AECD002981199C0E90231C0E900452A
:1042A00079E70000000014400000F03F30000000FB
:1042B0000000F0430000E03F2DE9FF4F95B09B4622
:1042C0008946064600250FE2252877D10024274697
:1042D000F84A0121059400E0044316F8013F203B11
:1042E00001FA03F01042F7D130782A2811D06FF08C
:1042F0002F033078A0F13002092A16D8059A44F02D
:10430000020402EB820203EB42021044761C059089
:10431000EFE759F8042B0592002A03DA504244F4DF
:104320000054059044F00204761C30782E2816D1F3
:1043300016F8010F44F004042A280DD06FF02F0264
:104340003078A0F13003092B09D807EB870302EB83
:104350004303C718761CF3E759F8047B761C3078C2
:104360006C280FD006DC4C2817D068280DD06A289E
:1043700014D104E0742810D07A280FD10DE044F451
:1043800000140AE044F4801401E044F4401472780C
:10439000824202D104F58014761C761C307866289F
:1043A0000BD013DC582877D009DC002875D04528BD
:1043B000F6D04628F4D047281AD19DE118E06328AA
:1043C00035D0642879D0652812D195E1702873D052
:1043D00008DC6728F1D069286FD06E280DD06F28CF
:1043E00006D1B5E073282CD0752875D0782874D004
:1043F0005A46179990476D1C75E1C4F30250022884
:1044000009D003280DD0D9F8001004280DD00D6074
:1044100009F1040967E1D9F80010EA17C1E900526F
:10442000F6E7D9F800100D80F2E70D70F0E719F803
:10443000041B8DF8001000208DF80100EA460120D1
:1044400003E059F804AB4FF0FF3061074FF0000173
:1044500002D40DE008F101018846B9420FDA804527
:10446000F8DB1AF808100029F4D108E008F101017E
:1044700088468142FADB1AF808100029F6D105981F
:104480005B46A0EB080721463846179A00F094FADD
:10449000284400EB080507E04DE029E10DE01AF89B
:1044A000010B5A4617999047B8F10108F7D25B46BD
:1044B00021463846179A13E142E00A220092C4F3DB
:1044C00002524FF0000A022A08D059F804CB032AFE
:1044D0004FEAEC710AD00DE029E02AE009F107016A
:1044E00021F00702F2E802C1914609E00FFA8CFCC4
:1044F0004FEAEC71042A03D14FFA8CFC4FEAEC71BD
:10450000002907DA0A460021DCF1000C61EB020108
:104510002D2202E0220504D52B228DF80420012251
:1045200003E0E20701D02022F7E7904659E00A2194
:1045300002E010220DE010214FF0000A00910BE084
:1045400010224FF0000A44F004040827009203E010
:1045500008224FF0000A0092C4F30252022A05D04A
:1045600059F804CB0021032A08D009E009F107011A
:1045700021F00702F2E802C1914605E01FFA8CFC27
:10458000042A01D10CF0FF0C4FF00008220728D5B7
:10459000702806D0009B83F0100353EA0A0305D06D
:1045A0000EE040228DF80420012208E05CEA0102BE
:1045B00006D030228DF804208DF8050002229046A6
:1045C000009B83F0080353EA0A030AD15CEA010264
:1045D00001D1620705D530228DF804204FF0010883
:1045E0007F1E582804D034A003900EA802900DE03E
:1045F00036A0F9E753466046009AFBF7E1FD844692
:104600000398825C0298401E029002705CEA0100EE
:10461000F0D1029806A9081A00F1200A600702D515
:1046200024F4803400E00127574502DDA7EB0A009F
:1046300000E0002000EB0A01009005984144401A78
:104640000590E00306D45B462146179A059800F0D2
:10465000B3F90544002706E001A85A46C05D179942
:1046600090476D1C7F1C4745F6DBE0030CD55B468D
:104670002146179A059800F09FF9054404E0302080
:104680005A46179990476D1C0099481E00900029C2
:10469000F5DC08E0029802995A460078491C02911C
:1046A000179990476D1CBAF10001AAF1010AF1DCDB
:1046B00065E10000092801003031323334353637E6
:1046C000383961626364656600000000303132335E
:1046D00034353637383941424344454600000000FE
:1046E00000F058F90544761C307800287FF4ECADD2
:1046F00019B02846BDE8F08F620700D4062709F1FB
:10470000070222F0070CFCE80223E14603F0004810
:104710005FEA080C02D00FF2702C0DE05FEA045C37
:1047200002D50FF2682C07E05FEAC47C02D00FF2DA
:10473000602C01E0AFF2700C4FF0FF3823F0004323
:10474000CDF850C065280CD006DC452809D0462895
:104750001DD047283DD13DE0662818D067287ED17E
:1047600038E00021112F01DB112000E0781CCDE999
:10477000000106A90EA8FFF7DDFCDDE90F010E9A86
:1047800003910021009207F1010A04914DE04FF0DE
:1047900000400097CDE9011006A90EA8FFF7CAFC5A
:1047A000DDE90F0203920E9B11990022DDF80CA0A7
:1047B0000093049211B9791C00EB010AB7EB0A00CF
:1047C00004D4C0F1FF3007F1010A0490AAEB0700FE
:1047D000019044E0012F00DA01270021112F01DDB3
:1047E000112000E03846CDE9000106A90EA8FFF728
:1047F000A1FCDDE90F010E9A0391002104910092C2
:10480000BA4621070CD40399514500DA8A46BAF119
:10481000010F05DD009AAAF10101515C302908D091
:10482000B84202DA10F1040F06DA0121CDE90110D5
:1048300015E0AAF10101E9E7002805DC049901442B
:104840000491AAEB000102E0411C514500DD8A46BB
:104850000499401A401C01904FF00040029020073C
:1048600004D40198504501DBCDF8048000208DF878
:104870004F0002980DF14F07B0F1004F25D02B20CB
:104880000E9002984FF0020800280CDA4042029085
:104890002D200E9007E00A210298FBF7EDFC303145
:1048A000029007F8011DB8F10001A8F10108F2DC3F
:1048B00002980028EFD1791E0E980870307800F029
:1048C000200040F0450007F8020D12A8C01B00F1BF
:1048D00007081498007800B1012000EB0A01019844
:1048E00001EBE07105984144401A401E0590E00339
:1048F00006D45B462146179A059800F05DF80544FA
:104900001498007818B15A46179990476D1CE00327
:1049100024D55B462146179A059800F04DF80544CA
:104920001CE00498002807DBDDE90301884203DD71
:104930000098405C179901E0179930205A4690473B
:10494000049805F10105401C04900198401E019057
:1049500004D12E205A46179990476D1CBAF10001D8
:10496000AAF1010ADDDC05E017F8010B5A46179998
:1049700090476D1CB8F10001A8F10108F4DC5B461A
:104980002146179A0598ABE62D0000002B00000089
:10499000200000002DE9F041044600251E46174680
:1049A000880404D405E039462020B0476D1C641EFD
:1049B000F9D52846BDE8F0812DE9F04104460025EF
:1049C0001E469046C80301D5302700E02027880402
:1049D00004D505E041463846B0476D1C641EF9D544
:1049E0002846BDE8F0810A68531C0B6010707047C0
:1049F00088B0FDF727F8FEF789FEFEF7E7FCFEF723
:104A0000D5FCFEF7E1FDFEF7FDFDFEF71DFEFEF70E
:104A100053FEFEF735FE1C220AA101A8FBF701FC9C
:104A20000EE00FA0FCF7EEF8FCF786FD044600BF91
:104A3000FCF782FD04F5FA718842F9D9FCF74CF9CC
:104A4000EFE7000048656C6C6F2066726F6D207434
:104A5000686520626F6F746C6F616465720000003E
:104A600046424C0A00000000000000000000000068
:104A70000102030406070809000000000102030404
:104A8000A04A000800000020200000001441000897
:104A9000C04A000820000020D80800002441000877
:104AA0000000000000000000142244251984327820
:104AB0000000000010000000010000000024F400CD
:040000050800018965
:00000001FF
