:020000040800F2
:10000000D80800209D010008AB200008E51E00086C
:10001000A920000857070008092800080000000070
:10002000000000000000000000000000BB200008ED
:100030005907000800000000B9200008BD20000892
:10004000B7010008B7010008B7010008B7010008B0
:10005000B7010008B7010008B7010008B7010008A0
:10006000B7010008B7010008B7010008B701000890
:10007000B7010008B7010008B7010008B701000880
:10008000B7010008B7010008B7010008B701000870
:10009000B7010008B7010008B7010008B701000860
:1000A000B7010008B7010008B7010008B701000850
:1000B000B7010008B7010008B7010008B701000840
:1000C000B7010008B7010008B7010008B701000830
:1000D000B7010008B7010008B7010008B701000820
:1000E000B7010008B7010008B7010008B701000810
:1000F000B7010008B7010008B7010008B701000800
:10010000B7010008B7010008B7010008B7010008EF
:10011000B7010008B7010008B7010008B7010008DF
:10012000B7010008B7010008B7010008B7010008CF
:10013000B7010008B7010008B7010008B7010008BF
:10014000B7010008B7010008B7010008AD2000089A
:10015000B7010008B7010008B7010008B70100089F
:10016000B7010008B7010008B7010008B70100088F
:10017000B7010008B7010008B7010008000000003F
:10018000B7010008B7010008DFF80CD000F062FAF0
:10019000004800472D310008D80800200648804755
:1001A00006480047FEE7FEE7FEE7FEE7FEE7FEE75C
:1001B000FEE7FEE7FEE7FEE74921000889010008A7
:1001C0002DE9F05F0546002092469B46884606468C
:1001D000814640241BE0284641464746224600F01F
:1001E00070F853465A46C01A914110D3114618462A
:1001F000224600F057F82D1A67EB01084F462246B9
:100200000120002100F04EF817EB00094E41201E9E
:10021000A4F10104DFDC484631462A464346BDE8E6
:10022000F09F40EA01039B0703D009E008C9121FB1
:1002300008C0042AFAD203E011F8013B00F8013BA0
:10024000521EF9D27047D2B201E000F8012B491ECC
:10025000FBD270470022F6E710B513460A46044663
:100260001946FFF7F0FF204610BD421C10F8011B95
:100270000029FBD1801A704730B50B46014600209B
:100280002022012409E021FA02F59D4205D303FA58
:1002900002F5491B04FA02F52844151EA2F10102D9
:1002A000F1DC30BD202A04DB203A00FA02F1002004
:1002B00070479140C2F1200320FA03F319439040A4
:1002C0007047202A04DB203A21FA02F0002170470F
:1002D00021FA02F3D040C2F12002914008431946AE
:1002E00070472DE9FE4F804681EA0300C00F0C469F
:1002F000009021F0004123F00045B8EB0200A94135
:1003000005D24046214690461C460B46024623F045
:100310000040104347D0270DC7F30A00C3F30A512A
:100320000290401A019040286BDAC3F3130040F4A6
:10033000801B0098924620B10023D2EB030A63EBA6
:100340000B0B01985946C0F140025046FFF7AAFF37
:1003500006460D4650465946019A00F08DF910EBBD
:1003600008006141002487EA115284EAE7731A43C6
:1003700040D0009A62B3019A012A4FEA075215DC75
:10038000001B61EB02014FF0004202EA0752CDE987
:100390000042001C41F5801132462B4600F08DF9D9
:1003A00003B0BDE8F08F40462146F9E7001B61EB42
:1003B0000201001C41F5801300185B412018A2F5D2
:1003C000001747EB030140EAD570B6196D4111E003
:1003D0006D084FEA360645EAC0754FEA0752001B22
:1003E00061EB0201001C41F5801149084FEA300021
:1003F0000019514132462B4603B0BDE8F04F00F0E2
:100400004DB90098012240000023D0EB020263EBBB
:10041000E073009821464FEAE074B8EB000061EB0E
:100420000401E9E783F000435BE781F0004158E70E
:100430002DE9FE4F81EA030404F0004421F000415D
:1004400000944FF0000B23F0004350EA01045ED00B
:1004500052EA03045BD0C3F30A54C1F30A552C4497
:10046000A4F2F3340194A0FB0254C1F3130141F44C
:100470008011C3F3130343F4801301FB024400FB18
:10048000034E840A970A44EA815447EA8357A4FB3F
:10049000076802958D0A05FB07854FEA932C04FB3C
:1004A0000C542705029D4FEA065847EA1637B5EB6C
:1004B00008056EEB070C870E920E47EA811742EA99
:1004C0008312A7FB0201B6EB0B0164EB00042B0DBA
:1004D00043EA0C335E1844EB1C50DA465146E7FB06
:1004E0000201C5F313044FEA0B3343EA14534FEAF6
:1004F0000432019C43EA0603A4F10C040294009C1C
:10050000CDE900B400F0D9F803B0BDE8F08F0020C9
:100510000146F9E72DE9F04D81EA030404F0004BB0
:1005200021F0004514464FF0000A23F0004150EA44
:10053000050220D054EA01021DD0C5F30A57024635
:10054000C5F31303C1F31300C1F30A5640F4801539
:1005500043F48013A7EB0608101BD64608F2FD38BB
:1005600073EB050002D308F1010801E092185B412A
:10057000B8F1000F03DA00200146BDE8F08D00203D
:100580004FF48011064684460EE0171B73EB0507F7
:1005900005D3121B63EB050306434CEA010C490823
:1005A0004FEA300092185B4150EA0107EDD152EA60
:1005B000030012D082EA040083EA0501084305D053
:1005C000101BAB4106D20122002306E000224FF0AF
:1005D000004302E06FF0010253101AEB06004CEBEF
:1005E000085110EB0A0041EB0B01BDE8F04D00F0A3
:1005F00055B8C1F30A52C1F3130140F2FF3341F47D
:1006000080119A4202DA00200146704740F23343DB
:100610009A42A2F2334202DC5242FFF752BEFFF787
:1006200041BE000030B5041E71F1000404DB4FF040
:100630000044404264EB0101141E73F1000405DB29
:100640001C464FF00043524263EB0403994208BF3B
:10065000904230BD064C074D06E0E06840F00103D3
:1006600094E8070098471034AC42F6D3FFF790FDAA
:100670004432000864320008202A06DBCB17203AF7
:1006800041FA02F043EAE07306E041FA02F3D04097
:10069000C2F12002914008431946704710B5141E5C
:1006A00073F1000408DA401C41F1000192185B412B
:1006B0001A4301D120F0010010BD2DE9F04D924602
:1006C0009B4611B1B1FA81F202E0B0FA80F2203219
:1006D0009046FFF7E7FD04460F4640EA0A0041EA6C
:1006E0000B0153465A46084313D0114653EA010002
:1006F00019D0C8F140025046FFF7E3FD05460E460B
:10070000504659464246FFF7CDFD084305D001202B
:1007100004E020463946BDE8F08D0020054346EA56
:10072000E0762C4337430A986305E40AA0EB0800FF
:100730000022FD0A44EA47540A3002D5002001464F
:10074000E9E7010510196941DDE90845001969412A
:10075000BDE8F04DA2E7FEE7704700002DE9F84341
:100760000746FF20C02590460E46002407E0385D6E
:10077000009001226946064800F0D0F8641CB4429B
:10078000F5D3404500D1B0252846BDE8F8830000E8
:100790000800002010B50178491C4218091F52F8C2
:1007A000042CFFF7DBFFB02803D0BDE8104000F0B9
:1007B0004DB8082000F03AF8BDE810400821014883
:1007C00000F0A2B80000002008B50178491C4218CA
:1007D000091F52F8042CFFF7C1FFB02802D000F027
:1007E00035F808BD012000F021F8AA208DF800009E
:1007F0000121684600F088F808BD00000FB400B57C
:1008000095B017AA6846169902F000F86846FFF7F7
:100810002CFD82B24FF0FF336946034801F038F8EF
:1008200015B05DF814FB00000C01002008B5A521EF
:100830008DF800108DF801004FF0FF330222694659
:10084000014801F025F808BD0C01002008B57F2003
:100850008DF800004FF0FF3301226946014801F096
:1008600017F808BD0C010020174C4FF0FF3517A0FA
:10087000FFF7C4FFC8211448FFF7ECFC12492B46D0
:100880000122A1F5417000F0A7FF22782B46611CE0
:100890001C4800F0A1FF607851380C2810D2DFE826
:1008A00000F0070B06060606060606060606DEE745
:1008B0000548FFF789FFDAE70348FFF76BFFD6E744
:1008C00002A0FFF79BFFD2E71004002046424C5FD6
:1008D00044454255475F4D53473A496E76616C69CE
:1008E0006420636F6D6D616E6420636F6465207258
:1008F000656365697665642066726F6D20686F73E5
:1009000074200A000C0100208AB201464FF0FF3328
:10091000014800F0BDBF00000C01002030B50223EB
:100920004371002305E000BF056851F823402C60A7
:100930005B1C9342F8D301680968012242710846A2
:1009400030BD10B5040002D0607910B106E001207E
:1009500010BD00202071204600F006F802206071D2
:1009600001206071002010BD08B50068064988426A
:1009700008D10648016841F480510160006800F424
:100980008050009008BD0000003002403038024026
:1009900070B5044600F0ECF80546601C02D004482F
:1009A0000078044400F0E4F8401BA042FAD370BD84
:1009B000100000202DE9F84FDFF87CB100224FF045
:1009C00001084FF0030A4FF00F090BF1040E00BFAE
:1009D0000B6808FA02F42340A3426ED14D68022D41
:1009E00001D0122D0ED1D50800EB850CDCF820507B
:1009F0005607F70E09FA07F6B5430E69BE402E43B7
:100A0000CCF82060066855000F790AFA05FC07F05B
:100A1000030726EA0C06AF40374307604E68012EF5
:100A200005D0022E03D0112E01D0122E0ED18668D1
:100A3000CF6826EA0C06AF40374387604668A64376
:100A40000C79C4F30014944034434460C6688C6845
:100A500026EA0C06AC403443C4604C68E40065D51B
:100A6000364C256845F480452560246822F003054E
:100A700004F480440094324C2E19D6F808489507A7
:100A80002F0F09FA07F5AC432E4DA84201D10025DE
:100A900024E02D4DA84201D101251FE02B4DA84295
:100AA00001D102251AE02A4DA84201D1032515E003
:100AB000284DA84202D1042510E037E0264DA84277
:100AC00001D105250AE0254DA84201D1062505E002
:100AD000234DA84201D1072500E00825BD4025434C
:100AE000C6F80858DBF800405D464E689C43F603A4
:100AF00000D51C432C60DEF8004075464E689C43D0
:100B0000B60300D51C432C600B4D08352C684E688D
:100B10009C43F60200D51C432C60074D0C352C6815
:100B20004E689C43B60200D51C432C60521C102A10
:100B3000FFF44EAFBDE8F88F003C0140443802405E
:100B40000030014000000240000402400008024062
:100B5000000C024000100240001402400018024045
:100B6000001C02400AB1816170470904FBE70000E4
:100B700001488068704700001000002070477047EF
:100B8000704700002DE9F04104460068064601F078
:100B900021FD01286FD1206801F00DFE00286AD0E8
:100BA000206801F008FE800203D521684FF4001090
:100BB0004861206801F0FFFDC00203D521684FF4B1
:100BC00080104861206801F0F6FD400103D52168DE
:100BD0004FF080604861206801F0EDFD800702D58C
:100BE000216802204861206801F0E5FD800010D5F1
:100BF000D6F8400420F02E00C6F840042046FFF747
:100C0000BEFF0121206801F0BBFD21684FF00050BC
:100C10004861206801F0CFFDC00102D5204601F0F7
:100C2000CCF8206801F0C7FD000705D5204600F08C
:100C3000C7F8216808204861206801F0BCFD8001E8
:100C400024D5206801F02BFD074600254FF0010850
:100C500015E000BF05F00F0108FA01F038420DD091
:100C600006EB4510D0F80005E9B20004204603D594
:100C700000F06BFE02E01CE000F07DFF6D1CA06840
:100C8000A842E7D821684FF000704861206801F061
:100C900092FDC043C0060CD42068816921F0100188
:100CA0008161204601F0E6F82068816941F0100179
:100CB0008161BDE8F08170B58AB0040005D094F878
:100CC000B9022568002618B107E001200AB070BDFE
:100CD00084F8B862204600F027F8032084F8B902AF
:100CE000E86BC00500D42661206801F035FC04F1F2
:100CF000100128220D466846FFF793FA94E80F008A
:100D000001F0D4FB0121206801F067FD282229466B
:100D10006846FFF786FA94E80F0001F0C5FC012051
:100D200084F8B9020020D1E730B587B00446142119
:100D30006846FFF78FFA2068B0F1A04F38D11D4800
:100D40000024016841F00101016000681A4D00F0C3
:100D5000010005904FF40070CDE900046946284673
:100D60000294FFF727FE4FF4E05000900220CDE9F7
:100D700001040A20CDE9034069462846FFF71AFE20
:100D80000C48001D016841F08001016009481430E1
:100D9000016841F4804101600068002200F4804055
:100DA00005901146432000F065F9432000F054F906
:100DB00007B030BD30380240000002407047704735
:100DC0007047000070B504001BD094F83D0000256A
:100DD00020B984F83C50204600F0AEF8242084F876
:100DE0003D002068016821F00101016000F00CFA6B
:100DF0004D4A6168914201D84C4900E04C49884213
:100E000001D2012070BD4B492368B0FBF1F15E684F
:100E100026F03F060E435E606368934206D94FF4A6
:100E2000967359434FF47A73B1FBF3F12368491C6D
:100E30001E6A26F03F06314319626168914210D85C
:100E40004900401EB0FBF1F2521CC2F30B02042A0F
:100E500001D2042022E0B0FBF1F0401CC0F30B00F3
:100E60001CE0A368F3B301EBC10202EB0116421EC2
:100E7000B2FBF6F2521C42F48042120549D093B301
:100E800001EBC10202EB0111401EB0FBF1F0401C6E
:100E9000C0F30B0040F4804040F400402168CA6970
:100EA0004CF6FF739A431043C861D4E90701084325
:100EB00021680A6822F0C00210430860D4E90301E7
:100EC00001432068826848F2FF339A4311438160EE
:100ED000D4E9050108432168CA6822F0FF021043E3
:100EE000C86001E00EE016E02068016841F00101F1
:100EF00001602564202084F83D00256384F83E507D
:100F0000002070BD01EB4106421EB2FBF6F2521CFE
:100F1000B3E70120C2E701EB4101401EB0FBF1F055
:100F2000401CC0F30B00B7E7A086010080841E00C0
:100F300000093D0040420F0010B586B00446142160
:100F40006846FFF787F914492068884221D1134881
:100F50000021026842F002020260006800F0020014
:100F600005904FF410700090122001900120CDE9FF
:100F700002010420049069460948FFF71BFD074859
:100F80001030016841F400110160006800F40010A5
:100F9000059006B010BD00000054004030380240FB
:100FA0000004024002488168027811448160704761
:100FB000100000200B4810B5016841F40071016079
:100FC000016841F480610160016841F48071016051
:100FD000032000F06FF8002000F006F800F024F87D
:100FE000002010BD003C024070B50D4D04464FF48A
:100FF0007A712878B1FBF0F00A490968B1FBF0F08A
:1010000000F054FB48B9102C07D200222146501E94
:1010100000F030F800206C6070BD012070BD000051
:10102000100000201C0000200A4808B5016841F4A7
:1010300080410160006800F4804000900548001F76
:10104000016841F080510160006800F0805000901C
:1010500008BD000044380240002809DB00F01F02F0
:10106000012191404009800000F1E020C0F800110A
:1010700070470000F0B40E4B1B680C46C3F302230C
:10108000C3F10705042D00D90425191D072901D234
:10109000002300E0DB1E012606FA05F1491E21406F
:1010A00099409E40761E16403143F0BC01F0C0BB13
:1010B0000CED00E0064900F0070208684FF6FF0358
:1010C000184040EA0220034A1043086070470000BD
:1010D0000CED00E00000FA052DE9F0470E46050092
:1010E00065D0DFF81481D8F80000F7B200F00F00E7
:1010F000B04207D288F80070D8F8000000F00F0066
:10110000B04254D128683D4C810712D5400703D521
:10111000206840F4E05020602878000703D520685C
:1011200040F4604020602068A96820F0F000084387
:1011300020602878C0072DD0304968680839012818
:1011400012D0022813D0032811D00968890700297A
:101150002DDA216821F0030101432160FFF708FD2A
:10116000814641F2883A0EE009688903EFE7096891
:101170008901ECE7FFF7FCFCA0EB0901514502D91E
:101180000320BDE8F0872068696800F00C00B0EB30
:10119000810FEFD1D8F80010404601F00F01B142A5
:1011A00007D90770006800F00F00B04201D001209D
:1011B000E7E72878400705D52068E96820F4E05083
:1011C000084320602878000706D52068296920F4A4
:1011D000604040EAC100206000F036F82168084A0B
:1011E000C1F30311515CC840064908600020FFF7B5
:1011F000FBFE0020C5E70000003C0240083802402A
:101200002C3200081C0000200448054900680968C9
:10121000044AC1F38221515CC84070471C00002081
:10122000083802403C320008044805490068096853
:10123000044AC1F34231515CC84070471C00002091
:10124000083802403C320008154810B5006810F01C
:101250000C02144813D04110042A0FD0082A0ED1D2
:101260000F4C241F2268236802F03F025B0207D55F
:101270002068C0F38810A0FB010106E0084610BDFD
:101280002168C1F38811A1FB00010023FEF798FF3C
:101290002168C1F30141491C4900B0FBF1F010BDC8
:1012A000083802400024F4002DE9F84F050076D0FC
:1012B0002878DFF8F8B2BE4CC00749D0DBF8001040
:1012C0005846C1F38101012908D00068C0F38100AC
:1012D00002280AD1201D0068400206D5206880033C
:1012E00036D568680028E2D032E06868B0F5803F03
:1012F00010D0B0F5A02F206810D020F480302060EE
:10130000206820F4802020606868A0B1FFF730FCDE
:1013100006460CE0206840F48030F4E740F480207A
:101320002060F7E7FFF724FC801B642873D820684F
:101330008003F7D50CE0FFF71BFC064605E000BF75
:10134000FFF716FC801B6428F0D820688003F7D4D0
:101350002878DFF8608280074FF000093ED5DBF87F
:101360000010584611F00C0F09D00068C0F381003E
:1013700002280BD18D48001F0068400206D4206867
:10138000800715D5E868012809D111E0E868B8B1EF
:101390000120C8F80000FFF7EBFB064605E002E17C
:1013A000FFF7E6FB801B0228C0D820688007F7D52E
:1013B0002068296920F0F80040EAC10020600DE0B3
:1013C000C8F80090FFF7D4FB064604E0FFF7D0FB17
:1013D000801B02281FD820688007F7D428780007D0
:1013E00022D5724E744869696C3671B10121016071
:1013F000FFF7BEFB074604E0FFF7BAFBC01B02285D
:1014000009D830688007F7D50EE0C0F80090FFF7E4
:10141000AFFB074605E083E0FFF7AAFBC01B0228ED
:101420007ED830688007F7D42878400768D5DFF881
:101430007CA100270AF1380ADAF80000C0000BD4BA
:10144000DAF8001041F08051CAF80010DAF8000014
:10145000012700F080500090584E3068C00510D42D
:10146000306840F480703060FFF782FB009005E048
:10147000FFF77EFB0099401A022851D83068C0055A
:10148000F6D54A4EA868683601280FD0052830687E
:1014900010D020F001003060306820F0040030608F
:1014A000A868B8B1FFF764FB00900FE0306840F027
:1014B0000100F4E740F004003060F7E7FFF758FB65
:1014C0000099411A41F28830814264D8306880071F
:1014D000F4D50EE0FFF74CFB009007E0FFF748FB68
:1014E0000099411A41F28830814254D8306880070F
:1014F000F4D42FB1DAF8001021F08051CAF80010AE
:10150000A869C0B3DBF80010C1F3810102294AD0F9
:101510000228484607D0C8F86000FFF729FB00E022
:1015200039E005463AE04746C8F86000FFF720FB7F
:10153000064604E0FFF71CFB801B02282BD820681E
:101540008001F7D4D5E907010843A96A1C4A490874
:1015500002EB01416A6A41EA8211084395F82C10B6
:1015600040EA01611148001F016001203866FFF761
:10157000FFFA054605E014E0FFF7FAFA401B0228DF
:1015800009D820688001F7D50BE000BFFFF7F0FA1B
:10159000401B022802D90320BDE8F88F2068800193
:1015A000F4D40020F8E70120F6E7000008380240F4
:1015B0000038024000004742800E47420070004061
:1015C0000000FFFF70B5040005D00025A56294F867
:1015D000510010B106E0012070BD84F85050204643
:1015E00000F030F8022084F851002068016821F0F2
:1015F00040010160D4E901010843D4E90312114319
:10160000084361690843218B01F400710843E169D3
:101610000843216A0843A16A084321680860A06959
:10162000042101EA1040616A08432168486020688B
:10163000C16921F40061C1616565012084F8510030
:10164000002070BD10B586B0044614216846FEF730
:1016500001FE1349206888421FD112480021026808
:1016600042F480520260006800F4805005900D48FA
:101670001438026842F001020260006800F00100C4
:101680000590E02000900220CDE901010520CDE980
:10169000031069460448FFF78DF906B010BD00003D
:1016A00000300140443802400000024010B5401EA6
:1016B000B0F1807F01D3012010BD4FF0E0246061C4
:1016C0000F21601701F0B4F80020A061072020610D
:1016D000002010BD70B5040004D094F83900002536
:1016E00010B106E0012070BD84F83850204600F0AB
:1016F00023F8242084F839002068C16821F40051BF
:10170000C160204600F04AFD2068016921F4904143
:1017100001612068416921F02A0141612068C168A6
:1017200041F40051C160E563202084F8390084F859
:101730003A00002070BD0000F0B587B004461421C7
:101740006846FEF787FD20481E4F26681E49103860
:101750000222012303240725BE4215D10E6846F458
:1017600000360E60096801F400310591016841F00E
:10177000010101600068694600F0010005900C203D
:101780008DE83D00114818E0114FBE4217D10E6898
:1017900046F480260E60096801F4802105910168F5
:1017A00041F0040101600068694600F00400059002
:1017B0004FF440608DE83D000648FFF7FBF807B0A6
:1017C000F0BD0000004400404038024000000240EC
:1017D00000480040000802402DE9F843044690F814
:1017E0003A00994616460D4620284FD195B18EB144
:1017F00094F83800012849D0012084F838000027E7
:10180000E763222084F83A00FFF7B2F9A685804604
:10181000E68531E00120BDE8F883E08D401EE085DB
:10182000A0684346B0F5805F4FF000024FF0200102
:101830002046CDF8009004D000F006FE98B10320B9
:10184000E9E700F001FE0028F9D1206900282068AE
:10185000406803D0C1B225F8011B0DE0C0F30801B8
:1018600025F8021B08E0206900282068406801D0A4
:1018700000F07F0005F8010BE08D0028CDD120207D
:1018800084F83A0084F838700020C4E70220C2E7E8
:101890002DE9F843044690F839001F4616460D46D8
:1018A000202850D1A5B19EB194F8380001284AD023
:1018B000012084F838004FF00008C4F83C80212053
:1018C00084F83900FFF754F9A6848146E68426E0BF
:1018D0000120BDE8F883E08C401EE084A0684B4600
:1018E000B0F5805F4FF000024FF080012046009776
:1018F00003D000F0A9FDE8B90DE000F0A5FDC8B9DE
:1019000028882168C0F308004860206908B16D1C70
:1019100005E0AD1C03E0216815F8010B4860E08C80
:101920000028D8D14B46002240212046009700F0E5
:101930008BFD08B10320CCE7202084F8390084F81F
:1019400038800020C5E70220C3E72DE9F05F074695
:1019500000680E4600EB4114D4F808054FF0040B64
:10196000420701EB86004FF0050A4FF0100807EB25
:10197000C00508D5C4F808B5D4F80C0540F002003D
:10198000C4F80C0530E0D4F80805800601D5202005
:1019900028E0D4F808054FF0080900070FD5D4F85F
:1019A0000C0540F00200C4F80C0585F85DA0C4F8F1
:1019B0000885C4F80895386800F010FE14E0D4F8E3
:1019C0000805400510D5D4F80C0540F00200C4F815
:1019D0000C05386800F002FEC4F8088585F85D90B3
:1019E0004FF48060C4F80805D4F8080580050ED5CA
:1019F000D4F80C0540F00200C4F80C05314604F59B
:101A0000A164386800F0EAFD4FF4007090E0D4F86B
:101A100008054FF00001C0074FF0010237D03869C8
:101A200030B1A86CD4F81035C3F31203C01AE864BF
:101A300085F85D20A965C4F8082595F83F0020B118
:101A4000022802D003280FD01AE0D4F80C0540F089
:101A50000200C4F80C05314604F5A164386800F0B2
:101A6000BDFDC4F800800BE0D4F8000540F0005044
:101A7000C4F8000585F85C2031463846FFF780F849
:101A800015F8500F80F001002870BDE8F09FD4F8E1
:101A90000805800735D5D4F80C0520F00200C4F8FD
:101AA0000C0595F85D000223012808D0052809D00F
:101AB00006280AD0082808D003281FD015E085F88A
:101AC0005C2012E085F85CA00FE0A86D401CA865C2
:101AD000032813D9A96585F85CB0D4F8000520F077
:101AE000804040F00040C4F80005C4F8083595F87F
:101AF0005C2031463846FFF743F8C6E785F85C308E
:101B0000EBE7D4F80805000614D5D4F80C0540F02E
:101B10000200C4F80C05A86D3146401CA8650620DB
:101B200085F85D0004F5A164386800F057FD802059
:101B30002060AAE7D4F80805C006A6D595F83F00AE
:101B4000032803D020B1022802D011E0A96505E0E6
:101B5000A965386960B9032085F85D00D4F80C05E3
:101B600040F00200C4F80C053146386800F036FD3C
:101B7000C4F8088589E72DE9F047026802EB4114B3
:101B8000D4F808254FF00403520709D5C4F80835E6
:101B9000D4F80C0540F00200C4F80C05BDE8F0874D
:101BA000D4F8082501EB810596064FF0000200EB02
:101BB000C5054FF0020C15D52023C4F8083595F85B
:101BC0003D30012BEAD185F83D2085F85CC0D4F882
:101BD0000C2542F00202C4F80C250068BDE8F0476D
:101BE00000F0FCBCD4F8086577064FF0010611D56B
:101BF00085F85D3085F83D60AA65D4F80C2542F083
:101C00000202C4F80C25006804F5A16400F0E6FCAB
:101C1000402010E0D4F80875BF050ED5D4F80C2587
:101C200042F00202C4F80C25006804F5A16400F03B
:101C3000D5FC4FF400702060B0E7D4F80875FF07BA
:101C40000FD0AA65D4F80C2542F00202C4F80C2586
:101C5000006804F5A16400F0C1FC266085F85D60B1
:101C60009CE7D4F808754FF005095FEA07784FF054
:101C700008070DD5C4F80875D4F80C2542F0020207
:101C8000C4F80C25006800F0A9FC85F85D9085E794
:101C9000D4F808854FF0100A5FEAC86818D5AA651D
:101CA000032285F85D2095F83D2022B995F83C2067
:101CB0000AB985F83D60D4F80C2542F00202C4F858
:101CC0000C25006804F5A16400F088FC5046B2E7DA
:101CD000D4F808855FEA08680FD5D4F80C2542F0DF
:101CE0000202C4F80C25006804F5A16400F076FC3B
:101CF000062085F85D0080209DE7D4F808855FEA1E
:101D0000485812D5D4F80C2542F00202C4F80C252C
:101D1000006804F5A16400F061FCC4F800A04FF471
:101D20008060206085F85D7038E7D4F80875BF07DB
:101D300096D5D4F80C7527F00207C4F80C7595F801
:101D40005D70012F0AD0032F17D0042F15D0052F57
:101D500016D0062F17D0082F15D027E085F85C6025
:101D600095F83F20022A01D0032A1FD195F851206F
:101D700082F0010285F8512018E085F85CC015E07A
:101D800085F85C9012E0AE6D761CAE65032E03D92B
:101D9000AA6585F85C3001E085F85CC0D4F80025C0
:101DA00022F0804242F00042C4F80025C4F808C581
:101DB00095F85C20FEF7E4FEF0E67CB50468054685
:101DC000D4F840040190D4F8400420F02E00009094
:101DD000019880070DD50198C00706D0A06920F0B2
:101DE0000051A1612846FEF7C9FE009840F00200AC
:101DF00000900198000732D5009840F0080000904C
:101E0000019840071DD5A869022803D0E868012879
:101E10000CD00FE00198C0F341400228286803D09D
:101E2000012100F0ADFC05E00221FAE74EF660204A
:101E3000C4F804042846FEF7C2FF2846FEF79EFEBB
:101E40000DE02846FEF7BAFFD4F8400420F02E003B
:101E5000C4F840042868816941F00051816101980B
:101E60008006009802D540F020000090C4F840049D
:101E70007CBD00002DE9F041024600680646016A7B
:101E8000C1F3434301F00F07C1F30A14022B25D11C
:101E9000002C23D007EB870102EBC105696C0029F8
:101EA0001CD0224600F08BFC686C20446864E86C0F
:101EB0002044E86406EB4710D0F81015084A114298
:101EC0000CD0D0F8001521F0804141F00041C0F85D
:101ED000001515F8500F80F001002870BDE8F08162
:101EE0000000F81FFEE700002DE9F04F87B0142135
:101EF0006846FEF7AFF958480024016841F0100128
:101F00000160016801F010010591016841F00401D0
:101F10000160016801F004010591016841F0800150
:101F20000160016801F080010591016841F0010143
:101F30000160016801F001010591016841F00201B1
:101F40000160016801F002010591016841F008019A
:101F500001600068002200F00800059008213F4859
:101F6000FEF700FE012211463D48FEF7FBFD4FF251
:101F7000100A002251463B48FEF7F4FD08260125D1
:101F80000096CDE90154694634480394FEF712FDEA
:101F90000095CDE90154694631480394FEF70AFDE6
:101FA00000960226CDE901640527CDE9034769467D
:101FB0002B48FEF7FFFCDFF8B0800095DFF8ACB0EF
:101FC000CDE9018469465846FEF7F4FC10200090E4
:101FD000CDE901644FF00609CDE903496946584649
:101FE000FEF7E8FC0420CDE90004DFF884B0694680
:101FF00058460294FEF7DEFCA8020090CDE9016489
:10200000CDE9034769465846FEF7D4FCCDF800A059
:10201000CDE90154694613480394FEF7CBFC4FF415
:1020200084500090CDE90164CDE9034969460C482C
:10203000FEF7C0FC2020CDE900046946094802945F
:10204000FEF7B8FC0096CDE9018469460348FEF727
:10205000B1FC07B0BDE8F08F3038024000100240FC
:1020600000080240000C0240000012100000024074
:10207000000402400B480A494FF4007201604FF41B
:102080008271416000218160C1600161C0E9051277
:10209000C1610162416281620A21C162FFF792BAA5
:1020A0000030014074000020FEE770470148FEF751
:1020B00069BD00004C01002070477047FEF772BFF9
:1020C00030B593B030216846FEF7C4F814210CA84F
:1020D000FEF7C0F81A480025016841F08051016000
:1020E000006800F0805011901648016841F480416A
:1020F00001600068022400F48040119001200090EB
:10210000000401908001CDE90640082008904FF4BA
:10211000A870CDE9090407200B906846FFF7C4F8C2
:102120000CA90F2081E831004FF4A0500F90E0027D
:10213000109005210CA8FEF7CFFF13B030BD0000B2
:1021400040380240007000401048016841F47001BE
:1021500001600F48016841F0010101600C4A002153
:102160000832116002680B4B1A400260031D0A4AD4
:102170001A60026822F48022026005480C30016077
:1021800002495806803908607047000088ED00E079
:1021900000380240FFFFF6FE103000242DE9F04128
:1021A000044600680169E26821F44051114301616D
:1021B0002169A068E2690843616911432268084304
:1021C000D16849F20C6399430143D16020684169A9
:1021D000A26921F4407111434161E2696425B2F5BD
:1021E000004F9748974922684FF032083FD08A4203
:1021F00001D082427CD1FFF717F800EBC00101EB60
:10220000001061688900B0FBF1F6FFF70DF800EBF4
:10221000C00101EB001061688900B0FBF1F0B0FB78
:10222000F5F06FF01801484306EB800108EB011050
:10223000B0FBF5F000F0F006FEF7F6FF00EBC00192
:1022400001EB001061688900B0FBF1F0B0FBF5F024
:1022500006EB0016FEF7E8FF00EBC00101EB0010F3
:1022600061688900B0FBF1F7FEF7DEFFD2E08A4239
:1022700001D082423DD1FEF7D7FF00EBC00101EB58
:10228000001061684900B0FBF1F0B0FBF5F0060109
:10229000FEF7CAFF00EBC00101EB001061684900C6
:1022A000B0FBF1F7FEF7C0FF00EBC00101EB00103F
:1022B00061684900B0FBF1F0B0FBF5F06FF0180178
:1022C000484307EB800108EBC100B0FBF5F000F0DC
:1022D000F80006EB4006FEF7A7FF00EBC00101EB9C
:1022E000001061684900B0FBF1F7FEF79DFF3CE08C
:1022F00055E0FEF789FF00EBC00101EB00106168BB
:102300004900B0FBF1F0B0FBF5F00601FEF77CFFF1
:1023100000EBC00101EB001061684900B0FBF1F770
:10232000FEF772FF00EBC00101EB0010616849008D
:10233000B0FBF1F0B0FBF5F06FF01801484307EB8C
:10234000800108EBC100B0FBF5F000F0F80006EBEF
:102350004006FEF759FF00EBC00101EB0010616879
:102360004900B0FBF1F7FEF74FFF00EBC00101EBB6
:10237000001061684900B0FBF1F0B0FBF5F06FF0C0
:102380001801484307EB800108EBC100B0FBF5F0F2
:1023900000F00700216830448860BDE8F081FEF756
:1023A00033FF00EBC00101EB001061688900B0FB56
:1023B000F1F6FEF729FF00EBC00101EB00106168A8
:1023C0008900B0FBF1F0B0FBF5F06FF01801484365
:1023D00006EB800108EB0110B0FBF5F000F0F00611
:1023E000FEF712FF00EBC00101EB001061688900ED
:1023F000B0FBF1F0B0FBF5F006EB0016FEF704FFC2
:1024000000EBC00101EB001061688900B0FBF1F73F
:10241000FEF7FAFE00EBC00101EB001061688900D5
:10242000B0FBF1F0B0FBF5F06FF01801484307EB9B
:10243000800108EB0110B0FBF5F000F00F00A9E7F8
:1024400000140140001001402DE9F0419846174664
:102450000E460446069D1DE0681C1BD02DB1FEF7FC
:1024600087FBA0EB0800A84214D92068C16821F4BA
:10247000D071C1602068416921F0010141612020D3
:1024800084F8390084F83A00002084F838000320EA
:10249000BDE8F0812068006836EA000004D0002022
:1024A000B842D9D00020F3E70120F9E770B504461F
:1024B00006990A9E049D0D98012916D0E06840F007
:1024C0004000E060204600F02BF8A16B1EB321F421
:1024D0008031A163012D07D1A16841F00601A160FF
:1024E000A16841F02001A16070BDA16B21F4803191
:1024F000A163E168094A1140E160E16821F44011FB
:10250000E160012803D1E06840F48010E0602046DB
:1025100000F006F8DEE741F48031DAE7BFFFBDFFE7
:1025200001220C4902E0521C8A420BD80369002B9D
:10253000F9DA026942F001020261012204E0521C50
:102540008A4201D9032070470369DB07F7D10020D5
:1025500070470000400D0300816821F00101816097
:102560000020704708B5D0F8402422F02E020092D7
:10257000D20405D4012909D1009941F4805103E026
:1025800021B9009921F48051C0F84014002008BD01
:10259000002110220261054A491C914201D9032001
:1025A00070470369DB06F7D400207047400D030035
:1025B0000022202343EA811101610549521C8A420D
:1025C00001D90320704703699B06F7D400207047A8
:1025D000400D0300406900F00100704700EB41111D
:1025E000D1F800254FF47A73C2F381426AB1022A0E
:1025F0000BD0D1F8002542F08042C1F80025D0F878
:10260000100410F47F0F2ED009E0D1F8002542F01D
:102610008042C1F80025C06A10F47F0F07D0D1F8BE
:10262000000540F00040C1F8000500207047D1F8D7
:10263000000520F00040C1F80005D1F8000540F089
:102640000040C1F80005D1F8000520F40040C1F8B1
:102650000005012002E0401C9842E6D8D1F8002590
:10266000002AF8DBE1E7D1F8000520F00040C1F8CE
:102670000005D1F8000540F00040C1F80005D1F890
:10268000000520F40040C1F80005012002E0401CD4
:102690009842CAD8D1F80025002AF8DBC5E7D0F85F
:1026A000140480B2704700002DE9F0410025DDF8E8
:1026B000188017460446C0F8005E806B40F4001096
:1026C000A063A06B20F40020A063A06B20F4802006
:1026D000A063E06BC00501D5032B04D0D4F800043F
:1026E00020F0040103E0D4F8000440F00401204687
:1026F000C4F800141021FFF75BFF2046FFF748FFE6
:102700000020461E07E000BF04EB4011C1F8086539
:10271000C1F80C55401C8742F6D801212046FFF72E
:1027200021FFC820FEF734F9A5616661E06BC005A2
:1027300006D54FF4007060620C48A0620C4804E0BB
:10274000802060620B48A0620B48C4F80001B8F119
:10275000000F03D1A06940F01000A061A0690749F3
:102760000843A0610020BDE8F081000000020001E4
:102770000003E00080006000E0004000080020A3AB
:10278000D0F8002422F00302C0F80024D0F800247E
:1027900001F003031A43C0F80024012902D00229E2
:1027A00003D006E04BF6803101E041F27071C0F8D1
:1027B0000414002070474169806908407047D21CAA
:1027C00010B59308002200F5805002E00468521C06
:1027D00010C19A42FAD3084610BD10B5C26822F063
:1027E000C042C260012902D029B1012010BDC168D8
:1027F00041F0005102E0C16841F08041C1603220E7
:10280000FEF7C6F8002010BDFEE7000037B51446FD
:102810000846064B6A46214600F0ECF80446694635
:10282000002000F07EFC20463EBD00002331000861
:102830000907090E002804DB00F1E02080F80014ED
:10284000704700F00F0000F1E02080F8141D704781
:1028500002E008C8121F08C1002AFAD17047704769
:10286000002001E001C1121F002AFBD170470000C7
:102870002DE9FF5F82B00021DDE90430020DDDF8B3
:1028800040B0034318D044F61050A2F2FF32424346
:102890001514119801281FD0A5EB0B00401C5FEA0E
:1028A000000A4FF000064E4FDFF83891B046504610
:1028B00015D5CAF1000413E0119801244AA3012898
:1028C00001D16FEA0B010298119AC0E90031C0E909
:1028D000024206B0BDE8F09FCBF10000DFE70446FE
:1028E0000021404A491842EB0450CDE9001012E0A3
:1028F000E00707D032463B4640464946FDF798FD83
:102900008046894632463B4610461946FDF790FD03
:1029100006460F466410002CEAD1DDE90401DDE92A
:102920000023BAF1000F06DAFDF782FD42464B465E
:10293000FDF77EFD05E0FDF7EDFD42464B46FDF758
:10294000E9FD04460E460022284BFDF76BFE03D836
:102950004FF0FF30014607E00022254B204631466C
:10296000FDF7BFFCFDF745FE102409E0002C0ADB53
:102970000A220023FDF724FC039B30321A55641E03
:1029800050EA0102F2D1641C039AC4F11103144409
:10299000119A012A03D0012208430DD10AE008430D
:1029A00004D000204FF0110B119072E7A3EB0B0540
:1029B0006D1E0DE05B4504DD4FF0000205F10105E1
:1029C00004E003DA4FF00002A5F10105002AECD083
:1029D00002981199C0E90231C0E9004579E7000089
:1029E000000014400000F03F300000000000F04301
:1029F0000000E03F2DE9FF4F95B09B468946064613
:102A000000250FE2252877D100242746F84A012126
:102A1000059400E0044316F8013F203B01FA03F05F
:102A20001042F7D130782A2811D06FF02F03307878
:102A3000A0F13002092A16D8059A44F0020402EBEC
:102A4000820203EB42021044761C0590EFE759F82E
:102A5000042B0592002A03DA504244F400540590F6
:102A600044F00204761C30782E2816D116F8010F97
:102A700044F004042A280DD06FF02F023078A0F122
:102A80003003092B09D807EB870302EB4303C71870
:102A9000761CF3E759F8047B761C30786C280FD04D
:102AA00006DC4C2817D068280DD06A2814D104E021
:102AB000742810D07A280FD10DE044F400140AE0F5
:102AC00044F4801401E044F440147278824202D14C
:102AD00004F58014761C761C307866280BD013DC45
:102AE000582877D009DC002875D04528F6D046282C
:102AF000F4D047281AD19DE118E0632835D0642826
:102B000079D0652812D195E1702873D008DC672848
:102B1000F1D069286FD06E280DD06F2806D1B5E0AE
:102B200073282CD0752875D0782874D05A461799F8
:102B300090476D1C75E1C4F30250022809D00328A8
:102B40000DD0D9F8001004280DD00D6009F104094A
:102B500067E1D9F80010EA17C1E90052F6E7D9F8A1
:102B600000100D80F2E70D70F0E719F8041B8DF8E6
:102B7000001000208DF80100EA46012003E059F81A
:102B800004AB4FF0FF3061074FF0000102D40DE0BD
:102B900008F101018846B9420FDA8045F8DB1AF8DE
:102BA00008100029F4D108E008F1010188468142AB
:102BB000FADB1AF808100029F6D105985B46A0EB5D
:102BC000080721463846179A00F094FA284400EB8B
:102BD000080507E04DE029E10DE01AF8010B5A461F
:102BE00017999047B8F10108F7D25B46214638465D
:102BF000179A13E142E00A220092C4F302524FF006
:102C0000000A022A08D059F804CB032A4FEAEC71D3
:102C10000AD00DE029E02AE009F1070121F00702BE
:102C2000F2E802C1914609E00FFA8CFC4FEAEC7120
:102C3000042A03D14FFA8CFC4FEAEC71002907DA21
:102C40000A460021DCF1000C61EB02012D2202E0BA
:102C5000220504D52B228DF80420012203E0E2078F
:102C600001D02022F7E7904659E00A2102E0102225
:102C70000DE010214FF0000A00910BE010224FF000
:102C8000000A44F004040827009203E008224FF0F1
:102C9000000A0092C4F30252022A05D059F804CB6C
:102CA0000021032A08D009E009F1070121F00702F9
:102CB000F2E802C1914605E01FFA8CFC042A01D11A
:102CC0000CF0FF0C4FF00008220728D5702806D022
:102CD000009B83F0100353EA0A0305D00EE0402264
:102CE0008DF80420012208E05CEA010206D03022BF
:102CF0008DF804208DF8050002229046009B83F099
:102D0000080353EA0A030AD15CEA010201D162070F
:102D100005D530228DF804204FF001087F1E582879
:102D200004D034A003900EA802900DE036A0F9E77D
:102D300053466046009AFDF743FA84460398825C46
:102D40000298401E029002705CEA0100F0D10298E5
:102D500006A9081A00F1200A600702D524F480347D
:102D600000E00127574502DDA7EB0A0000E0002044
:102D700000EB0A01009005984144401A0590E003D9
:102D800006D45B462146179A059800F0B3F905442E
:102D9000002706E001A85A46C05D179990476D1CB0
:102DA0007F1C4745F6DBE0030CD55B462146179AAE
:102DB000059800F09FF9054404E030205A46179921
:102DC00090476D1C0099481E00900029F5DC08E032
:102DD000029802995A460078491C02911799904727
:102DE0006D1CBAF10001AAF1010AF1DC65E10000F5
:102DF00009280100303132333435363738396162D1
:102E00006364656600000000303132333435363794
:102E100038394142434445460000000000F058F96B
:102E20000544761C307800287FF4ECAD19B02846B4
:102E3000BDE8F08F620700D4062709F1070222F0EF
:102E4000070CFCE80223E14603F000485FEA080CA7
:102E500002D00FF2702C0DE05FEA045C02D50FF295
:102E6000682C07E05FEAC47C02D00FF2602C01E01E
:102E7000AFF2700C4FF0FF3823F00043CDF850C094
:102E800065280CD006DC452809D046281DD04728E7
:102E90003DD13DE0662818D067287ED138E000217A
:102EA000112F01DB112000E0781CCDE9000106A9FB
:102EB0000EA8FFF7DDFCDDE90F010E9A039100215A
:102EC000009207F1010A04914DE04FF00040009795
:102ED000CDE9011006A90EA8FFF7CAFCDDE90F0233
:102EE00003920E9B11990022DDF80CA0009304922E
:102EF00011B9791C00EB010AB7EB0A0004D4C0F148
:102F0000FF3007F1010A0490AAEB0700019044E0AA
:102F1000012F00DA01270021112F01DD112000E02F
:102F20003846CDE9000106A90EA8FFF7A1FCDDE9AE
:102F30000F010E9A0391002104910092BA462107D5
:102F40000CD40399514500DA8A46BAF1010F05DD28
:102F5000009AAAF10101515C302908D0B84202DA86
:102F600010F1040F06DA0121CDE9011015E0AAF1F4
:102F70000101E9E7002805DC049901440491AAEB6A
:102F8000000102E0411C514500DD8A460499401AC7
:102F9000401C01904FF000400290200704D401989B
:102FA000504501DBCDF8048000208DF84F000298D9
:102FB0000DF14F07B0F1004F25D02B200E90029855
:102FC0004FF0020800280CDA404202902D200E90AB
:102FD00007E00A210298FDF74FF93031029007F817
:102FE000011DB8F10001A8F10108F2DC02980028E7
:102FF000EFD1791E0E980870307800F0200040F074
:10300000450007F8020D12A8C01B00F1070814982C
:10301000007800B1012000EB0A01019801EBE0719A
:1030200005984144401A401E0590E00306D45B46D3
:103030002146179A059800F05DF805441498007829
:1030400018B15A46179990476D1CE00324D55B468A
:103050002146179A059800F04DF805441CE00498A5
:10306000002807DBDDE90301884203DD0098405CAE
:10307000179901E0179930205A469047049805F1B6
:103080000105401C04900198401E019004D12E209F
:103090005A46179990476D1CBAF10001AAF1010A2E
:1030A000DDDC05E017F8010B5A46179990476D1CB7
:1030B000B8F10001A8F10108F4DC5B462146179A3B
:1030C0000598ABE62D0000002B000000200000005A
:1030D0002DE9F041044600251E461746880404D415
:1030E00005E039462020B0476D1C641EF9D52846FE
:1030F000BDE8F0812DE9F041044600251E469046CA
:10310000C80301D5302700E02027880404D505E056
:1031100041463846B0476D1C641EF9D52846BDE8C7
:10312000F0810A68531C0B601070704788B0FDF77F
:1031300041FFFEF7C5FFFEF7D7FE2C492A4808607D
:103140000846FDF7FEFB2B482949002401602A4967
:10315000C0E901144FF48041C0E903414461846136
:10316000C4610462FDF72EFEFEF784FF2148234967
:10317000AC304FF4E1350160C0E901540C26C46065
:10318000C0E904468461C461FEF7A4FA1C484FF00C
:10319000A0410160082181600121C0E903140221DE
:1031A000C0E90614FDF787FD15481649403801604F
:1031B000C0E90154C460C0E904468461C461FEF7FB
:1031C00089FA1C2210A16846FDF72BF815A0FDF71F
:1031D00015FBFDF7CDFC00F5FA7400BFFDF7C8FC48
:1031E000A042FBD9FDF740FB003002400800002060
:1031F0000054004020000020A08601000044004050
:103200004C0100200048004048656C6C6F206672DD
:103210006F6D2074686520626F6F746C6F61646598
:1032200072000000414243440A0000000000000018
:103230000000000001020304060708090000000066
:103240000102030464320008000000202000000096
:10325000502800088432000820000020B808000030
:1032600060280008515253545556575A0000000028
:10327000000000000100000010000000000000003D
:043280000024F40032
:040000050800018965
:00000001FF
